:100000000C9468010C9490010C9490010C94900154
:100010000C9490010C9490010C9490010C9490011C
:100020000C9490010C9490010C9490010C9490010C
:100030000C9490010C9490010C9490010C949001FC
:100040000C94B0150C9490010C9490010C949001B8
:100050000C9490010C9490010C9490010C949001DC
:100060000C9490010C949001808386898C8F9295DA
:10007000989B9EA2A5A7AAADB0B3B6B9BCBEC1C499
:10008000C6C9CBCED0D3D5D7DADCDEE0E2E4E6E8F1
:10009000EAEBEDEEF0F1F3F4F5F6F8F9FAFAFBFC21
:1000A000FDFDFEFEFEFFFFFFFFFFFFFFFEFEFEFD6C
:1000B000FDFCFBFAFAF9F8F6F5F4F3F1F0EEEDEBEE
:1000C000EAE8E6E4E2E0DEDCDAD7D5D3D0CECBC98D
:1000D000C6C4C1BEBCB9B6B3B0ADAAA7A5A29E9B0B
:1000E0009895928F8C898683807C797673706D6AFF
:1000F0006764615D5A5855524F4C494643413E3BF7
:10010000393634312F2C2A282523211F1D1B19177E
:10011000151412110F0E0C0B0A090706050504032E
:1001200002020101010000000000000001010102C3
:1001300002030405050607090A0B0C0E0F11121421
:100140001517191B1D1F212325282A2C2F31343662
:10015000393B3E414346494C4F5255585A5D6164C4
:10016000676A6D707376797C0000000023002600BA
:100170002900000000000000000000000000000056
:100180000000000000000000000001010101010169
:100190000101010101010202020202020202030343
:1001A0000303030304040404050505050506060608
:1001B000060707070808080909090A0A0A0B0B0BB2
:1001C0000C0C0D0D0D0E0E0F0F101011111212133D
:1001D0001314141515161617181819191A1B1B1CA9
:1001E0001D1D1E1F1F2021222223242526262728ED
:1001F000292A2A2B2C2D2E2F303132333435363705
:1002000038393A3B3C3D3E3F4041424445464748F1
:10021000494B4C4D4E50515254555658595A5C5DAD
:100220005E606163646667696A6C6D6F7072737536
:1002300077787A7C7D7F8182848688898B8D8F9187
:10024000929496989A9C9EA0A2A4A6A8AAACAEB09E
:10025000B2B4B6B8BABCBFC1C3C5C7CACCCED1D37D
:10026000D5D7DADCDFE1E3E6E8EBEDF0F2F5F7FA1B
:10027000FCFF00000000240027002A00000000000E
:10028000250028002B0004040404040404040202D2
:100290000202020203030303030302020301020436
:1002A00008102040800102040810200102040810F8
:1002B00020408040000000090003020000040508FF
:1002C0000000000000000000000000005219841A25
:1002D00011241FBECFEFD8E0DEBFCDBF11E0A0E0FC
:1002E000B1E0E4E9FAE302C005900D92A032B10753
:1002F000D9F722E0A0E2B1E001C01D92AE39B20709
:10030000E1F711E0C7E6D1E004C02197FE010E94A9
:10031000041CC636D107C9F70E948C160C943D1DEB
:100320000C940000CF92DF92EF92FF92E62F9C0197
:10033000AAEFB5E00E94B11BDC01CB019058AF4F92
:10034000BF4FCD01BB2797FDB095AB2F8E3F41E04E
:10035000940798F5782F8F3F910508F44DC04EEF24
:10036000481B50E07FEFF0E0319630E0272FDF01AF
:100370000E940A1C6B017C01CC24EE24FF24252F53
:100380000E940A1C672F782F892F9927C62AD72AFF
:10039000E82AF92A242F0E940A1C982F872F762FEB
:1003A00066276627772799276C297D298E299F291B
:1003B000FF90EF90DF90CF9008958C3F43E094073B
:1003C00060F452E0580F7FEF8D3F42E0940718F041
:1003D0007CEF781B5FEF40E0C6CF8A3F45E0940793
:1003E00071F05AEF581B8B3F44E0940748F444E007
:1003F000480F5FEF70E0B7CF50E04FEFB4CF50E061
:1004000070E0FBCFFC018281938168177907E0F4EB
:10041000A685218532858385A81317C0CB01880F57
:10042000991F680F791F620F731FA385A60FB72F3F
:10043000B11D1C92A485A60FB72FB11D1C928585F6
:10044000680F711DFB0110820895660F771F660FFC
:10045000771F620F731FA60FB72FB11D1C92E5CF38
:10046000843081F028F48230E9F08330F9F0089587
:10047000883071F0893091F08530B9F48091800036
:100480008F7D03C0809180008F77809380000895D6
:100490008091B0008F778093B00008958091B00074
:1004A0008F7DF9CF84B58F7784BD089584B58F7D16
:1004B000FBCFCF93DF93282F30E0F901EC54FD4FB1
:1004C0008491F901E356FD4FD491F901EA57FD4FAC
:1004D000C491CC2391F081110E943002EC2FF0E006
:1004E000EE0FFF1FE458FD4FA591B4918FB7F8941C
:1004F000EC91D095DE23DC938FBFDF91CF910895EF
:10050000CF93DF9390E0FC01E356FD4F24918A578F
:100510009D4FFC0184918823C9F090E0880F991FBA
:10052000FC01EE58FD4FA591B491FC01E458FD4F3C
:10053000C591D49161110DC09FB7F8948C9120950D
:1005400082238C938881282328839FBFDF91CF91BA
:100550000895623051F49FB7F8943C91822F8095B2
:1005600083238C93E8812E2BEFCF8FB7F894EC91F7
:100570002E2B2C938FBFEACF883020F08D3008F4DB
:100580008DE08E508770806480937C0080917A002B
:10059000806480937A0080917A0086FDFCCF809100
:1005A00078009091790008953FB7F89480916A029D
:1005B00090916B02A0916C02B0916D0226B5A89B40
:1005C00005C02F3F19F00196A11DB11D3FBFBA2FE5
:1005D000A92F982F8827BC01CD01620F711D811DA5
:1005E000911D43E0660F771F881F991F4A95D1F729
:1005F00008958F929F92AF92BF92CF92DF92EF9227
:10060000FF926B017C010E94D4024B015C01C1147A
:10061000D104E104F104B9F00E94D4026819790907
:100620008A099B09683E73408105910580F321E0AA
:10063000C21AD108E108F10888EE880E83E0981EFE
:10064000A11CB11CE4CFFF90EF90DF90CF90BF9042
:10065000AF909F908F9008952FB7F89460916602A5
:100660007091670280916802909169022FBF08958E
:1006700084E1809307010895CF92DF92EF92FF9279
:100680000F931F93CF93DF93CDB7DEB729970FB6A4
:10069000F894DEBF0FBECDBF8C010E94D402D801FA
:1006A0001F96CD90DD90ED90FC9052976C157D05D6
:1006B0008E059F0528F4F8016787708B818B928BDC
:1006C000D8011F96CD90DD90ED90FC9052976C195B
:1006D0007D098E099F096C32714081059105E8F210
:1006E000F894F801848195819A838983A185B285E4
:1006F0007D01FFEFEF1AFF0A8C918F83D8018C9157
:1007000053960D90BC91A02D882309F434C11C820E
:10071000AB32B10509F076C09BB1F8018589982B01
:1007200098879BB180958923898789858B838F8161
:1007300087FF02C088858B83588569854F813B81FF
:100740002C8189819A81D7015BB9262F3BB900C0E2
:1007500046FD252F6BB900C05BB9362F2BB900C001
:1007600045FD352F6BB900C05BB9262F3BB900C0E2
:1007700044FD252F6BB900C05BB9362F2BB900C0E3
:1007800043FD352F6BB900C05BB9262F3BB900C0C4
:1007900042FD252F6BB900C05BB9362F2BB900C0C5
:1007A00041FD352F6BB900C05BB9262F3BB900C0A6
:1007B00040FD252F6BB901975BB9362F2BB94D91B1
:1007C00047FD352F6BB901F64F833B832C839A830A
:1007D000898378940E94D402D8011F966D937D93EB
:1007E0008D939C93529729960FB6F894DEBF0FBE57
:1007F000CDBFDF91CF911F910F91FF90EF90DF90D0
:10080000CF900895A532B10509F059C095B1F8010E
:100810008589982B988795B18095892389878985C3
:100820008B838F8187FF02C088858B83588569857C
:100830004F813B812C8189819A81D70155B9262F1F
:1008400035B900C046FD252F65B900C055B9362F12
:1008500025B900C045FD352F65B900C055B9262F13
:1008600035B900C044FD252F65B900C055B9362FF4
:1008700025B900C043FD352F65B900C055B9262FF5
:1008800035B900C042FD252F65B900C055B9362FD6
:1008900025B900C041FD352F65B900C055B9262FD7
:1008A00035B900C040FD252F65B9019755B9362FE0
:1008B00025B94D9147FD352F65B901F685CF98973C
:1008C00009F087CF98B1F8018589982B988798B15E
:1008D00080958923898789858B838F8187FF02C0D3
:1008E00088858B83588569854F813B812C818981DF
:1008F0009A81D70158B9262F38B900C046FD252F57
:1009000068B900C058B9362F28B900C045FD352F49
:1009100068B900C058B9262F38B900C044FD252F4A
:1009200068B900C058B9362F28B900C043FD352F2B
:1009300068B900C058B9262F38B900C042FD252F2C
:1009400068B900C058B9362F28B900C041FD352F0D
:1009500068B900C058B9262F38B900C040FD252F0E
:1009600068B9019758B9362F28B94D9147FD352FF1
:1009700068B901F629CF9C91F8018589982B988751
:100980009C9180958923898789858D8388E08E83D2
:10099000588569854F813E812D8189819A81F70132
:1009A0005C9347FD252F2C93262F3A9531F0441F59
:1009B0006C9300C000C000C0F3CF6C93000038E01F
:1009C0004191019769F7F801B48BA38B4F833E8364
:1009D0002D83FDCECF93DF9300D000D0CDB7DEB70F
:1009E00069837A838B839C83DE011196CE01059601
:1009F000ED91F0E0EE58FE4F44919D0121503109F8
:100A0000F90140838A179B0799F769817A818B8165
:100A10009C810F900F900F900F90DF91CF910895D0
:100A2000FF920F931F93CF93DF93EC01FF24F39476
:100A3000F60E28852F1589F109851A85215049F16F
:100A40006F3FE9F430E050E040E06FEF7FEF80E08F
:100A500090E00E945D1BB901F8014C815D81CF01DE
:100A6000801B910B84179507B8F4DF014D91469FC9
:100A7000C001479F900D11249083FD01EECF8F2D73
:100A800090E0982F88270197622F70E00E94DC1B6E
:100A9000E3CF70E060E0E0CFF886DF91CF911F9167
:100AA0000F91FF9008958F929F92AF92BF92CF9235
:100AB000DF92EF92FF921F93CF93DF93FC0182812D
:100AC000938168177907A8F54A01AA24BB24C82D89
:100AD000C32ED42EE52EFF241C2DD22F80858823F3
:100AE00061F0889E40011124C92D8C9D6001112464
:100AF0001D2D829FD0011124DB2FA685E184F28475
:100B00009385A91322C0CB01880F991F680F791F05
:100B10006E0D7F1DA385A60FB72FB11DCC93A485A5
:100B2000A60FB72FB11D1C938585680F711DFB01A2
:100B3000D083DF91CF911F91FF90EF90DF90CF9006
:100B4000BF90AF909F908F900895660F771F660FAC
:100B5000771F6E0D7F1D252F3327442755278823A8
:100B600049F090E0829F7001839FF00C929FF00CFF
:100B700011242F2DA60FB72FB11D2C93CBCF8F9201
:100B80009F92AF92BF92EF92FF920F931F93CF93DA
:100B9000DF93FC01E280F380E114F10479F04A0173
:100BA0005B018C01D0E0C0E0A5019401BE01C80149
:100BB0000E9453052196EC16FD06B1F7DF91CF9107
:100BC0001F910F91FF90EF90BF90AF909F908F90EB
:100BD00008950F931F93CF93DF93681718F0962F04
:100BE000682F892FC62FD0E0082F10E0452B89F001
:100BF0000C171D07FCF060E070E0CB010E94EA04D6
:100C00009B01AC01BE018EE692E00E945305219645
:100C1000EFCF0C171D0774F060E070E0CB010E946D
:100C2000EA049B01AC01BE0184E892E00E945305F6
:100C30002196EFCFDF91CF911F910F910895CF9320
:100C4000DF93EC018E819F8197FD06C061E00E94D9
:100C500080028E810E94590281E08983DF91CF91C9
:100C600008954F925F926F927F92AF92BF92CF9210
:100C7000DF92EF92FF920F931F93CF93DF93FC01CC
:100C80002081318137FDB9C0EC013327F901EC54E3
:100C9000FD4F8491F901E356FD4F0491F901EA57A4
:100CA000FD4F1491112309F45DC081110E9430029F
:100CB000E12FF0E0EE0FFF1FE859FE4FA591B49130
:100CC000EC910E2391E080E009F490E0092F182FB9
:100CD0000E942C035E01FDE3AF0EB11CF5016083A1
:100CE0007183828393832FA938AD20173107E9F5EB
:100CF000C9ACDAACEBACFCAC2B013C014C185D0888
:100D00006E087F08CA80DB80F12CE12C4C145D0456
:100D10006E047F0410F01EAB0DABEDA8FEA8CA84D4
:100D2000DB848E010F5B1F4FF80140805180628091
:100D300073809B01AC012419350946095709290123
:100D40003A012AA93BA92230310509F485C0A4F44F
:100D50002115310551F12130310509F45DC01BAA7F
:100D60001AAA4BC010E000E0B3CF69AF7AAF8BAFE7
:100D70009CAF18AF0FABD1CF2630310509F4C6C0F8
:100D80002730310509F4F6C02330310541F7CE1480
:100D9000DF0409F06CC021E030E03BAB2AABF80186
:100DA000608371838283938328C08CA9811110C0D2
:100DB00088859985B0E0A0E084159505A605B7055E
:100DC00038F4E8A9F9A9309719F081E08CAB0995BE
:100DD000CE14DF0491F481E090E09BAB8AABF50187
:100DE00080819181A281B381F80180839183A28364
:100DF000B383CB5BDF4F19821882DF91CF911F91B4
:100E00000F91FF90EF90DF90CF90BF90AF907F90C9
:100E10006F905F904F90089522E030E0CE14DF0491
:100E200009F0BBCF8E819F81B0E0A0E084159505CD
:100E3000A605B70510F7EE8DFF8D309709F00995DF
:100E4000E8A1F9A1309719F08AA19BA1099586E044
:100E500090E09BAB8AABD1CFFE01EB5BFF4F808173
:100E6000918101969183808383E090E0F2CF7E01AF
:100E7000F5E4EF0EF11CF701208131818C819D8119
:100E8000B0E0A0E0481659066A067B0638F43296B0
:100E9000808191818217930709F0AFCF213031050E
:100EA000D1F4EC85FD85309709F00995EE85FF8535
:100EB000309719F08889998909951BAA1AAAF70110
:100EC000118210820E942C03F80160837183828357
:100ED00093831CAA92CF2230310561F4EA89FB8901
:100EE000309709F00995EC89FD89309731F38E89A7
:100EF0009F89E2CFE88DF98D309709F00995EA8D49
:100F0000FB8D3097D1F28C8D9D8DD6CFCE14DF0422
:100F100019F087E090E09DCF8E01055B1F4FF8012F
:100F2000C080D180E280F3806C197D098E099F0911
:100F30003297C080D180F12CE12C6C157D058E0597
:100F40009F0508F45ACFEAA5FBA5309709F009954B
:100F5000ECA5FDA5309719F08EA59FA50995F50183
:100F600080819181A281B381F80180839183A283E2
:100F7000B38343CFECA1FDA1309709F00995EEA111
:100F8000FFA1309719F088A599A509951BAA1AAA5F
:100F9000FE01EB5BFF4F94CF80918D0290918E020A
:100FA000892B21F084E892E00E943C038091770233
:100FB00090917802892B21F08EE692E00C943C030C
:100FC0000895CF92DF92EF92FF92CF93DF93C42EDA
:100FD000D12CF12CE12CD62AE82AD0E0C0E0C701C0
:100FE000B6010E94EA049B01AC01BE0184E892E0D4
:100FF0000E945305C701B6010E94EA049B01AC019F
:10100000BE018EE692E00E9453050E94CC076AE082
:1010100070E080E090E00E94F9022196C933D1058A
:10102000F1F6DF91CF91FF90EF90DF90CF90089590
:101030002F923F924F925F926F927F928F929F92E8
:10104000AF92BF92CF92DF92EF92FF920F931F93D6
:10105000CF93DF93CDB7DEB7A6970FB6F894DEBF78
:101060000FBECDBF962F190150E070E060E0592B04
:101070002A013B01682A8DE090E09EA38DA31D828A
:101080001E821F821886198A1A8A1B8A1C8A1D864C
:101090001E861F86188A1D8A1E8A1F8A188E198628
:1010A0001A861B861C86C801110FAA0BBB0B89A3CD
:1010B0009AA3ABA3BCA391E02916310409F4A8C0FC
:1010C000A2E02A16310409F4E3C12114310409F025
:1010D0007DC1C301B2010E94EA046B017C016D85F0
:1010E0007E858F85988990958095709561957F4FC5
:1010F0008F4F9F4F26E130E040E050E00E945D1BA3
:101100004901A7019601B40184E892E00E945305C9
:10111000C301B2010E94EA0469837A838B839C83B2
:101120006D817E818F819885909580957095619570
:101130007F4F8F4F9F4F26E130E040E050E00E940C
:101140005D1B69017A01BCE0CB0ED11CE11CF11CD6
:1011500029813A814B815C81B60184E892E00E944A
:101160005305C301B2010E94EA049B01AC01B40122
:101170008EE692E00E945305C301B2010E94EA0488
:101180009B01AC01B6018EE692E00E945305C301BB
:10119000B2010E94EA044B015C0169857A858B8566
:1011A0009C8526E130E040E050E00E945D1B690133
:1011B0007A0182E2C80ED11CE11CF11CA501940148
:1011C000B60184E892E00E945305C301B2010E9477
:1011D000EA049B01AC01ADA0BEA096E1A90EB11C32
:1011E000B50184E892E00E945305C301B2010E9458
:1011F000EA049B01AC01B6018EE692E00E94530521
:10120000C301B2010E94EA049B01AC01B501DAC03E
:101210006D897E898F89988D26E130E040E050E02D
:101220000E945D1BDA01C901895D9948AF4FBF4F2C
:101230006FEF0E94920169837A838B839C830E9463
:10124000EA046B017C016D857E858F85988926E196
:1012500030E040E050E00E945D1BDA01C9010496D5
:10126000A11DB11D898F9A8FAB8FBC8FA7019601ED
:10127000698D7A8D84E892E00E94530569897A89A4
:101280008B899C8926E130E040E050E00E945D1BA4
:10129000DA01C9018B5A954AAF4FBF4F6FEF0E94D9
:1012A00092014B015C010E94EA046D8F7E8F8F8F4B
:1012B00098A36D817E818F81988526E130E040E0A2
:1012C00050E00E945D1B69017A0195E0C90ED11CB6
:1012D000E11CF11C2D8D3E8D4F8D58A1B60184E887
:1012E00092E00E94530569817A818B819C810E94E2
:1012F000EA049B01AC01698D7A8D8EE692E00E9432
:101300005305C501B4010E94EA049B01AC01B6017A
:101310008EE692E00E9453056D817E818F819885D3
:101320002DE0660F771F881F991F2A95D1F726E1B8
:1013300030E040E050E00E945D1B6FEFC9010E9469
:1013400092014B015C010E94EA049B01AC016DA17A
:101350007EA184E892E00E945305C501B4010E9479
:10136000EA0469837A838B839C8369857A858B857C
:101370009C8526E130E040E050E00E945D1B690161
:101380007A01A8E3CA0ED11CE11CF11C29813A8123
:101390004B815C81B60184E892E00E945305C5014F
:1013A000B4010E94EA049B01AC016DA17EA18EE60E
:1013B00092E00E945305C501B4010E94EA049B011A
:1013C000AC01B6018EE692E00E94530569A17AA1B4
:1013D0008BA19CA10E94F9020E94CC0789859A8565
:1013E000AB85BC854697A109B10989879A87AB87E8
:1013F000BC878D899E89AF89B88D85589A46A10989
:10140000B1098D8B9E8BAF8BB88F8D859E85AF85F7
:10141000B8890597A109B1098D879E87AF87B88BD9
:1014200089899A89AB89BC8985559A45AF4FBF4F49
:10143000898B9A8BAB8BBC8B8D819E81AF81B8855C
:101440000896A11DB11D8D839E83AF83B887ADA182
:10145000BEA11196BEA3ADA3939709F02CCEA6967C
:101460000FB6F894DEBF0FBECDBFDF91CF911F91B5
:101470000F91FF90EF90DF90CF90BF90AF909F9033
:101480008F907F906F905F904F903F902F90089536
:10149000C301B2010E94EA046B017C016D857E8567
:1014A0008F85988926E130E040E050E00E945D1B86
:1014B00049015A01B4E08B0E911CA11CB11CA7017B
:1014C0009601B40184E892E00E945305C301B20181
:1014D0000E94EA0469837A838B839C836D817E8179
:1014E0008F81988526E130E040E050E00E945D1B4E
:1014F00069017A0185E0C80ED11CE11CF11C29812B
:101500003A814B815C81B60184E892E00E945305E8
:10151000C301B2010E94EA049B01AC01B4018EE652
:1015200092E00E945305C301B2010E94EA049B01AC
:10153000AC01B6018EE692E00E945305C301B201F0
:101540000E94EA049B01AC016DA17EA184E892E0B7
:101550000E945305C301B2010E94EA046B017C01A1
:1015600069857A858B859C8526E130E040E050E0F6
:101570000E945D1B275C3F4F4F4F5F4F590191E029
:10158000A91AB108A7019601B50184E892E00E946A
:101590005305C301B2010E94EA049B01AC016DA195
:1015A0007EA12ACE0F931F93853598F4982F990F1B
:1015B000990F282F291B2150682F660F860F90E066
:1015C000B0E0A0E077276627722B1F910F910C9453
:1015D000EA048A3AA8F48555982F990F990F482F55
:1015E000491B415050E070E060E0BA0155274427A4
:1015F000982F990F890F8A01082BCB01B801E5CFED
:101600008A5A482F440F480F50E070E060E0762F70
:10161000652F542F4427982F990F990F891B8150BC
:10162000EACF2F923F924F925F926F927F928F926A
:101630009F92AF92BF92CF92DF92EF92FF920F9361
:101640001F93CF93DF93CDB7DEB762970FB6F894B1
:10165000DEBF0FBECDBF9A838983892B21F020E89E
:1016600030E03A8329830E942C03009122011091DB
:1016700023012091240130912501601B710B820B05
:10168000930B6F3071058105910508F404C1C0907A
:101690002001D0902101D886CF820E942C03609334
:1016A0002201709323018093240190932501D98016
:1016B000DC0CED2CF12C970128593F4F3A832983FC
:1016C0008F8198859927AC0148595F4F1A01809105
:1016D000C1019091C201892B09F402C1412C512C06
:1016E00032010DE010E01B821C821D821E82C12C83
:1016F000D12C7601C701B60126E130E040E050E090
:101700000E945D1B8091BD019091BE01820F931FCD
:101710009A8B898BF10164910E9492010E94EA04E4
:101720004B015C016B817C818D819E8126E130E0E3
:1017300040E050E00E945D1B29873A874B875C8719
:10174000A501940169857A8584E892E00E94530599
:10175000F101649189899A890E9492010E94EA04A8
:101760009B01AC01B80184E892E00E945305F101AD
:10177000649189899A890E9492010E94EA046D8786
:101780007E878F87988BC301B20126E130E040E06D
:1017900050E00E945D1B49015A01F8E38F0E911C35
:1017A000A11CB11C2D853E854F855889B40184E864
:1017B00092E00E945305E981FA81649189899A89AE
:1017C0000E9492010E94EA049B01AC0169857A851E
:1017D0008EE692E00E945305E981FA81649189893D
:1017E0009A890E9492010E94EA049B01AC01B8010F
:1017F0008EE692E00E945305E981FA81649189891D
:101800009A890E9492010E94EA049B01AC01B401F2
:101810008EE692E00E945305FFEFEF1AFF0A2B813C
:101820003C814D815E81235F3F4F4F4F5F4F2B8344
:101830003C834D835E830F5F1F4F36E1431A51088F
:1018400061087108C114D10446E1E406F10409F00D
:1018500051CF8F819885019690932101809320012B
:101860000E94CC078091BD019091BE01A091BF0163
:10187000B091C0019D5FAF4FBF4F009725E0A20719
:10188000B1050CF095C08093BD019093BE01A0936B
:10189000BF01B093C001809120019091210160E0CF
:1018A00071E00E94F01B90932101809320016296C9
:1018B0000FB6F894DEBF0FBECDBFDF91CF911F9161
:1018C0000F91FF90EF90DF90CF90BF90AF909F90DF
:1018D0008F907F906F905F904F903F902F900895E2
:1018E000F0900601FA0124911091050134910091C4
:1018F00004012490029DC00111246FEF70E00E944A
:10190000F01B462F139FC00111246FEF70E00E945F
:10191000F01B862E912CB12CA12CBA2CA92C982C22
:101920008824A42AF29EC00111246FEF70E00E9467
:10193000F01BA5019401262BCA01B9010E94EA04FB
:10194000AB01BC0184E892E00E94BF05E981FA8105
:10195000449124918491089FC00111246FEF70E09D
:101960000E94F01BE62F129FC00111246FEF70E060
:101970000E94F01B062F10E030E020E0322F212FD4
:10198000102F00272E2BF49EC00111246FEF70E062
:101990000E94F01B68017901C62AC701B6010E94A6
:1019A000EA04AB01BC018EE692E00E94BF0551CF74
:1019B0001092BD011092BE011092BF011092C001A1
:1019C0006ACF80910701843089F018F4833031F0B8
:1019D0000895853019F0863049F0089589E18093A3
:1019E0009001809363018093360108958091C10135
:1019F0009091C201880F991FFC01E55EFE4F208186
:101A000031813093350120933401FC01E95EFE4FB2
:101A10002081318130933301209332018D5E9E4FBE
:101A2000FC018081DCCF84E1809307010895CF928F
:101A3000DF92EF92FF921F93CF93DF93EC01162F6B
:101A4000662349F10E942C036A836D817E81AB81FC
:101A5000BC8128816A177B0708F0269530E080E278
:101A600090E0821B930B869FA001879F500D969F4D
:101A7000500D11240E94B11B640F751F811D911D13
:101A800025E096958795779567952A95D1F77C837C
:101A90006B8311E013C00E942C03772788279927B6
:101AA0002A81621B710981099109C980D12CF12C0D
:101AB000E12C6C157D058E059F0520F6812FDF91A9
:101AC000CF911F91FF90EF90DF90CF9008958F926C
:101AD0009F92AF92BF92CF92DF92EF92FF920F93BD
:101AE0001F93CF93DF93EC018BA581111BA660E0C0
:101AF000CE010E94170D8E01095F1F4F60E0C801E3
:101B00000E94170D882311F01CA21BA28F859889B3
:101B1000892B09F0A9C08F859889892B31F00E9403
:101B2000D4026B8F7C8F8D8F9E8F8E850E94BC021E
:101B300029A13AA12817390708F49C013AA329A33F
:101B40004F8D58A18417950708F4AC0158A34F8F07
:101B50008C898F5F8C8B9B89891708F49BC0C90186
:101B6000841B950B9EA38DA32BA13CA1281739079D
:101B700008F49C013CA32BA33D872C872A853B8539
:101B80002817390720F461E0C8010E94170D2DA124
:101B90003EA189889A888216930608F089C0EA8552
:101BA000FB858E169F0608F083C00E891D89C12E05
:101BB000D12CF12CE12CB12CA12C50E040E02819C3
:101BC00039094A095B09602F70E090E080E06C19E8
:101BD0007D098E099F090E94C01B9F0150E040E0D3
:101BE000281939094A095B090E945D1BC20ED31EE0
:101BF000E41EF51E812F90E0C816D90630F0802F24
:101C000090E0C816D90608F4C6019E838D8361E072
:101C1000CE010E94170D8D819E812CA521114BC0F4
:101C200028A528171906B8F00E942C030F89188DD3
:101C3000298D3A8DAB01BC01401B510B620B730B1C
:101C400089A59AA5B0E0A0E0481759076A077B0765
:101C500010F081E08CA71C8A1AA219A280E69AEEE5
:101C600098A38F8F81E017C00E94D402CB8CDC8CAC
:101C7000ED8CFE8CAB01BC014C195D096E097F092E
:101C80008F859889B0E0A0E0481759076A077B075D
:101C900008F041CF80E0DF91CF911F910F91FF902D
:101CA000EF90DF90CF90BF90AF909F908F9008956E
:101CB0001E821D82B0CF2FA12817190660F61CA620
:101CC00081E08BA70E942C036F8B788F898F9A8F6E
:101CD000C2CF2F923F924F925F926F927F928F92DC
:101CE0009F92AF92BF92CF92DF92EF92FF921F939B
:101CF000CF93DF93CDB7DEB728970FB6F894DEBF4A
:101D00000FBECDBF9E838D8380E991E00E94670D59
:101D1000882309F495C22D813E81C0909301D09013
:101D200094012130310521F0C0903901D0903A0161
:101D3000F12CE12CA3EFBFEFA70196010E948A1BB3
:101D400024E630E040E050E00E945D1BDA01C9016A
:101D50000D96A11DB11D89839A83AB83BC83298015
:101D60003A80AD81BE81119709F08EC22091660143
:101D7000309167013E832D838091C1019091C20112
:101D8000009709F088C28091050180900401912C90
:101D9000B12CA12C540199248824982A8091060101
:101DA000882AC501B4010E94EA04AB01BC0184E8A1
:101DB00092E00E94BF05C501B4010E94EA04AB0194
:101DC000BC018EE692E00E94BF058091030182155E
:101DD000130431F028F0A981A0930301109231017E
:101DE000AAEEBFEFA70196010E948A1B24E630E00D
:101DF00040E050E00E945D1B69017A01B6E1CB0E24
:101E0000D11CE11CF11CD886CF82809102018C1577
:101E10001D0429F020F0C0920201109230013EE032
:101E20002316310440F46DE04981641B50E040E02A
:101E30008CE00E94E9058F819885479770F463E2F2
:101E40006C1950E040E083E20E94E90562E26C0D0B
:101E500050E040E083E20E94E905AD81BE816D0162
:101E6000F12CE12CA3EFBFEFA70196010E948A1B82
:101E700024E630E040E050E00E945D1B29013A0179
:101E8000BDE04B0E511C611C711C5201809101017F
:101E90008415150429F020F04092010110922F01C1
:101EA000AAEEBFEFA70196010E948A1B24E630E04C
:101EB00040E050E00E945D1B69017A0186E1C80E96
:101EC000D11CE11CF11CDA82C982809100018C15C1
:101ED0001D0429F020F0C092000110922E01BEE0F6
:101EE000AB16B10438F46DE0641941E050E08CE0C9
:101EF0000E94E90529813A812731310570F463E2B6
:101F00006C1941E050E083E20E94E90562E26C0D49
:101F100041E050E083E20E94E905709003018DE00A
:101F200090E04C0187189108B0900201F6E1CF2EA5
:101F3000D12CCB18D108A09001017C01EA18F1083E
:101F40001091000146E150E0411B51095A83498339
:101F500060E070E0CB0181149104C9F08091C1016F
:101F60009091C201019709F020C2B40190E080E095
:101F7000CB01772766272CE030E040E050E00E945C
:101F80005D1B6FEFC9010E9492010E94EA049B0150
:101F9000AC01B40184E892E00E94530560E070E077
:101FA000CB01C114D104C9F08091C1019091C2014B
:101FB000019709F00AC2B60190E080E0CB017727D3
:101FC000662726E130E040E050E00E945D1B6FEFA5
:101FD000C9010E9492010E94EA049B01AC01B60172
:101FE000635F7F4F84E892E00E94530560E070E0F9
:101FF000CB01C114D104C9F08091C1019091C201FB
:10200000019709F0F2C1B60190E080E0CB0177279B
:10201000662726E130E040E050E00E945D1B6FEF54
:10202000C9010E9492010E94EA0428E330E0F9010C
:10203000EC19FD099B01AC01BF0184E892E00E940C
:10204000530560E070E0CB01E114F104C9F0809128
:10205000C1019091C201019709F0D7C1B70190E089
:1020600080E0CB01772766272CE030E040E050E0AD
:102070000E945D1B6FEFC9010E9492010E94EA0459
:102080009B01AC01B7018EE692E00E945305898165
:102090009A81892B09F4D9C18091C1019091C20123
:1020A000019709F0C2C1A981BA81BD0190E080E029
:1020B000CB017727662726E130E040E050E00E9420
:1020C0005D1B6FEFC9010E9492010E94EA049B010F
:1020D000AC0169817A81635F7F4F8EE692E00E9456
:1020E000530529813A8160E070E0CB01211531056B
:1020F000C9F08091C1019091C201019709F0A9C175
:10210000B90190E080E0CB017727662726E130E037
:1021100040E050E00E945D1B6FEFC9010E949201F8
:102120000E94EA0428E330E0F90149815A81E41B66
:10213000F50B9B01AC01BF018EE692E00E945305B6
:102140000E94CC078091BD019091BE01A091BF017A
:10215000B091C0019F5FAF4FBF4F009755E0A507FB
:10216000B1050CF086C18093BD019093BE01A09390
:10217000BF01B093C00180913101209134013091B1
:1021800035018217130609F00CF47CC180912D01F2
:102190008F5F80932D01409132015091330184175C
:1021A00015062CF073947092030110922D0180910A
:1021B0002F018217130609F00CF468C180912C01DD
:1021C0008F5F80932C01409132015091330184172D
:1021D00015062CF0A394A092010110922C0180917D
:1021E00030018217130609F00CF454C180912B01C1
:1021F0008F5F80932B0140913201509133018417FE
:1022000015062CF0B394B092020110922B0180912C
:102210002E018217130609F00CF440C180912A01A7
:102220008F5F80932A012091320130913301821710
:10223000130694F01F5F1093000110922A010CC046
:1022400083E691E00E94670D811165CD86E391E000
:102250000E94670D81115FCD28960FB6F894DEBFFE
:102260000FBECDBFDF91CF911F91FF90EF90DF9018
:10227000CF90BF90AF909F908F907F906F905F9026
:102280004F903F902F9008954091390150913A011D
:102290005E834D8371CD019709F097CD13EF812CAB
:1022A000912C540118861F82C501B4012CE030E046
:1022B00040E050E00E945D1B6FEFC9010E94920157
:1022C0002B013C010E94EA049B01AC016F817885DF
:1022D00084E892E00E945305C301B2010E94EA041F
:1022E0009B01AC016F8178858EE692E00E945305D8
:1022F000163128F5C501B4010D9725E130E040E025
:1023000050E00E945D1B6FEFC9010E9492012B01FA
:102310003C010E94EA049B01AC016F81788584E84E
:1023200092E00E945305C301B2010E94EA049B019E
:10233000AC016F8178858EE692E00E9453058AEEAB
:10234000810F863128F5C501B401C8972BEE3FEF08
:102350004FEF5FEF0E945D1B6FEFC9010E9492017A
:102360002B013C010E94EA049B01AC016F8178853E
:1023700084E892E00E945305C301B2010E94EA047E
:102380009B01AC016F8178858EE692E00E94530537
:102390008F819885019698878F839FEFA91AB90A34
:1023A0001F5F1C3209F080CF10CD20910401609195
:1023B000050170E090E080E0982F872F762F662748
:1023C000822B20910601622BE0CD209104016091C7
:1023D000050170E090E080E0982F872F762F662728
:1023E000822B20910601622BF6CD20910401609191
:1023F000050170E090E080E0982F872F762F662708
:10240000822B20910601622B0ECE20910401609157
:10241000050170E090E080E0982F872F762F6627E7
:10242000822B20910601622B29CE2091040160911C
:10243000050170E090E080E0982F872F762F6627C7
:10244000822B20910601622B40CE60E070E0CB0130
:102450003ECE209104016091050170E090E080E0A3
:10246000982F872F762F6627822B20910601622BCB
:1024700057CE1092BD011092BE011092BF01109272
:10248000C00179CE8F5F8093310191CE8F5F8093B1
:102490002F01A5CE8F5F80933001B9CE8F5F8093DF
:1024A0002E01DACE2F923F924F925F926F927F92DF
:1024B0008F929F92AF92BF92CF92DF92EF92FF9254
:1024C0000F931F93CF93DF93CDB7DEB72E970FB641
:1024D000F894DEBF0FBECDBF9A83898380E991E077
:1024E0000E94670D882309F4FDC089819A810297B3
:1024F00009F01DC10091390110913A019801AFEF27
:10250000B0E00E94B11B24E6C22ED12CE12CF12CAC
:10251000A70196010E945D1B322E20932801309363
:1025200029019801AFEFB0E00E94B11BA70196010D
:102530000E945D1B222EF901309327012093260172
:102540008091C1019091C201892B09F4F9C01982CF
:102550001A821B821C820DE010E01D821E821F82E7
:102560001886412C512C3201C301B20126E130E022
:1025700040E050E00E945D1BA091BD01B091BE0102
:10258000A20FB31FBE87AD87632DCD010E949201BC
:102590006B017C010E94EA044B015C016D817E812C
:1025A0008F81988526E130E040E050E00E945D1B7D
:1025B00029873A874B875C87A501940169857A85CD
:1025C00084E892E00E945305C701B6010E94EA0424
:1025D0009B01AC01B80184E892E00E945305C70159
:1025E000B6010E94EA044B015C0169817A818B810A
:1025F0009C8126E130E040E050E00E945D1B6901D3
:102600007A01B8E3CB0ED11CE11CF11CA5019401A9
:10261000B60184E892E00E945305622D8D859E8567
:102620000E9492014B015C010E94EA049B01AC01F3
:1026300069857A858EE692E00E945305C501B40152
:102640000E94EA049B01AC01B8018EE692E00E9470
:102650005305C501B4010E94EA049B01AC01B60117
:102660008EE692E00E9453052FEF621A720A8D8166
:102670009E81AF81B8850D96A11DB11D8D839E836E
:10268000AF83B8870F5F1F4F89819A81AB81BC816F
:102690004697A109B10989839A83AB83BC8341140E
:1026A000510496E16906710409F05ECF0E94CC07DF
:1026B0008091BD019091BE01A091BF01B091C00178
:1026C0009F5FAF4FBF4F009725E0A207B1050CF009
:1026D00078C08093BD019093BE01A093BF01B093D9
:1026E000C0010CC083E691E00E94670D8111FDCE10
:1026F00086E391E00E94670D8111F7CE2E960FB60A
:10270000F894DEBF0FBECDBFDF91CF911F910F9127
:10271000FF90EF90DF90CF90BF90AF909F908F9001
:102720007F906F905F904F903F902F9008952091F1
:102730009301309194010091660110916701DFCE01
:10274000209104012E9FC0012F9F900D11246FEF47
:1027500070E00E94F01B262F309105013E9FC001C2
:102760003F9F900D11246FEF70E00E94F01BC62E6A
:10277000D12CF12CE12CFE2CED2CDC2CCC24E22AEB
:10278000209106012E9FC0012F9F900D11246FEF05
:1027900070E00E94F01BC62AC701B6010E94EA043D
:1027A000AB01BC0184E892E00E94BF05C701B601FD
:1027B0000E94EA04AB01BC018EE692E00E94BF05D4
:1027C00075CF1092BD011092BE011092BF01109200
:1027D000C00194CFFC014481558170E060E08185A7
:1027E00092850C94361DCF93DF93EB010E94471B1B
:1027F0008883CE01DF91CF910895FF920F931F93AD
:10280000CF93DF938C01EB01F8800E94471BF816F1
:1028100021F06F2DC8010E944F1BCE01DF91CF9197
:102820001F910F91FF9008950F931F9380910801BE
:102830008823D9F01092080110E000E030E020E099
:1028400040E060E080E00E9418081092BD01109204
:10285000BE011092BF011092C00168E071E081E0FA
:1028600090E01F910F910C94FD1381E0809308017B
:102870008091C1019091C20105E010E0892B71F0B7
:1028800021E030E040E060E080E00E9418086AEF5C
:1028900070E080E090E00E94F902DFCF22E030E0BB
:1028A000409106016091050180910401EECF0C94E6
:1028B00014140C9414140F931F93CF93DF938091EF
:1028C0000801882309F466C0809107018431B1F5BD
:1028D00067E071E090E080E00E94F31310E000E018
:1028E00022E030E040E060E080E00E941808C1E0B3
:1028F000D0E08091070190E001968C179D07F4F1DC
:1029000005E010E022E030E040E060E080E00E947E
:10291000180864E670E080E090E00E94F90280917F
:10292000C1019091C201892BF1F021E030E040E03B
:1029300060E080E00E9418082196DBCF2FE730E0AE
:1029400030932101209320011092BD011092BE010D
:102950001092BF011092C0018F5F67E00E94D01BF0
:1029600090930701BBCF05E010E022E030E04091FA
:1029700006016091050180910401DCCF64E670E0FE
:1029800080E090E00E94F90267E071E090E080E072
:102990000E94FD13DF91CF911F910F910C94E10CD8
:1029A0000C945B14CF92DF92EF92FF92CF93DF9360
:1029B00087E00E94BC02EC0186E00E94BC02BE01DE
:1029C000680F791F072E000C880B990B6115710594
:1029D0008105910511F00E943E1B0E94EF1AC12C47
:1029E000D12C7601CA94A70196010E945D1B6093C9
:1029F00004010E94EF1AA70196010E945D1B6093DB
:102A000005010E94EF1AA70196010E945D1B6093C9
:102A10000601DF91CF91FF90EF90DF90CF90089566
:102A20000F931F93CF93209108012223E9F0843064
:102A30009105F1F08530910509F465C00397A1F483
:102A40008091C1019091C201892B71F40E94D2142E
:102A50000AE010E022E030E04091060160910501BB
:102A6000809104010E941808CF911F910F91089541
:102A70008FE790E090932101809320011092BD0197
:102A80001092BE011092BF011092C0018091C1014D
:102A90009091C201019662E070E00E94F01B909359
:102AA000C2018093C1018130910511F082E090E074
:102AB0000AE010E09C0140910601609105018091BF
:102AC00004010E9418080E94E10CC091C10182E03B
:102AD00090E00E94471BC81729F06C2F82E090E01D
:102AE0000E944F1BC091C20183E090E00E94471BEF
:102AF000C81709F4B9CF6C2F83E090E0CF911F91F4
:102B00000F910C944F1B40E060E08FEF0E94E107B3
:102B100040E060E080E00E94E10740E06FEF80E08D
:102B20000E94E10740E060E080E00E94E1074FEF93
:102B300060E080E00E94E10740E060E080E0CF914B
:102B40001F910F910C94E10780915B0290915C02C0
:102B50000C94101580910C0290910D020C9410159C
:102B60001F920F920FB60F9211242F933F938F93C2
:102B70009F93AF93BF938091660290916702A0915B
:102B80006802B09169023091650226E0230F2D376B
:102B900068F129E8230F0396A11DB11D209365025A
:102BA0008093660290936702A0936802B0936902D3
:102BB00080916A0290916B02A0916C02B0916D02BB
:102BC0000196A11DB11D80936A0290936B02A093A0
:102BD0006C02B0936D02BF91AF919F918F913F9125
:102BE0002F910F900FBE0F901F9018950296A11D68
:102BF000B11DD4CFFC01862F12821482138216825B
:102C000015821186138612861586148624EF31E00C
:102C1000308B278728E230E0328B218B94E1938B35
:102C2000148A158A24E6268B178A108E118E128E2E
:102C3000138E148E158E168E20E63AEE30A3278F53
:102C400012A211A214A213A216A215A220E527A374
:102C500090A724E630E032A721A713A614A69183FB
:102C600099E1908396E990879EE19783668760E07B
:102C70000C9480020F931F93CF93DF93EC01162FD8
:102C8000072F198218861F86188A198A1A8A83E0E4
:102C90008E8781E08B871C8692E09D87888384EEF7
:102CA00090E09D838C830E94111C9A8789870097EE
:102CB00071F124EEFC0111922A95E9F789E390E085
:102CC0009B838A831E830F838981882339F061E087
:102CD000812F0E948002812F0E945902812F902F04
:102CE000FC01EA57FD4FE491F0E0EE0FFF1FE458BE
:102CF000FD4F259134913C8B2B8BFC01E356FD4F0E
:102D0000E491ED8BDF91CF911F910F9108951D827A
:102D10001C821B821A82D6CFCF93DF93CDB7DEB74A
:102D20006A970FB6F894DEBF0FBECDBF789484B516
:102D3000836084BD85B5836085BD80916E008160B0
:102D400080936E0082E08093810080918100816099
:102D500080938100809180008160809380008091C9
:102D6000B10084608093B1008091B0008160809355
:102D7000B00086E880937A001092C10080ED94E163
:102D8000909323028093220289E594E19093290293
:102D90008093280230915D0220915E0284EA95E1E1
:102DA00090932F0280932E02832F922F84369105C9
:102DB00014F484E690E090935E0280935D0283E1D8
:102DC0009DE0909335028093340280ED97E09093DC
:102DD0001D0280931C028BE594E19093D4018093B3
:102DE000D30187E594E19093DA018093D901309182
:102DF0000E0220910F028AEA95E19093E001809300
:102E0000DF01832F922F8436910514F484E690E03D
:102E100090930F0280930E0288E393E09093E60173
:102E20008093E50180ED97E09093CE018093CD01F2
:102E30008AE08093980164E170E07093A20160934E
:102E4000A1014FE1409397018093A30136E13093B4
:102E500090011092A50124E62093A6019AE5909393
:102E6000B70180936B017093750160937401409377
:102E70006A01809376013093630110927801209368
:102E8000790190938A0180933E0170934801609389
:102E9000470140933D0180934901309336011092E0
:102EA0004B0120934C0190935D010E94D21466E285
:102EB00084E892E00E94100566E28EE692E00E94AD
:102EC000100584E892E00E941F068EE692E00E94C0
:102ED0001F0684E892E00E94EA138EE692E00E94C8
:102EE000EA130E94CC0767E071E090E080E00E9466
:102EF000F31368E071E081E090E00E94F31382E058
:102F000090E00E94471B8093C10183E090E00E9403
:102F1000471B8093C2010E94E10C26E1422E512CF6
:102F2000612C712C30E0232E30E0332E86E192E0CC
:102F30000E94310687EC91E00E94310680910801E1
:102F4000882309F4A6C1E0910701E53108F013C117
:102F5000F0E0E355F84E0C94041CC217F118F61873
:102F6000F918FE1803190619BB18BB18BB18BB18B3
:102F7000BB18BB18BB18BB18BB18BB18BB18BB18B9
:102F8000BB1809198091C1019091C201892B09F4E4
:102F900002C10E942C03C090C301D090C401E090F4
:102FA000C501F090C6016C197D098E099F096A3030
:102FB00071058105910508F4DEC00E942C03609321
:102FC000C3017093C4018093C5019093C6011D8213
:102FD0001E821F8218868DE090E09A8F898F198655
:102FE0001A861B861C86812C912C54018091BD0170
:102FF0009091BE01A091BF01B091C0018D879E87C5
:10300000AF87B88BC501B401A30192010E945D1B7B
:103010008D859E85820F931F6FEF0E9492016B0139
:103020007C010E94EA0469837A838B839C8369858F
:103030007A858B859C85A30192010E945D1B298B5B
:103040003A8B4B8B5C8B29813A814B815C816989FE
:103050007A8984E892E00E945305C701B6010E9474
:10306000EA049B01AC01698D7A8D84E892E00E94AC
:103070005305C701B6010E94EA046D8B7E8B8F8BCE
:10308000988F6D817E818F819885A30192010E9426
:103090005D1BDA01C901C896A11DB11D89839A8300
:1030A000AB83BC832D893E894F89588D69817A8194
:1030B00084E892E00E945305C701B6010E94EA0429
:1030C0009B01AC0169897A898EE692E00E945305E2
:1030D000C701B6010E94EA049B01AC01698D7A8D9B
:1030E0008EE692E00E945305C701B6010E94EA04F1
:1030F0009B01AC0169817A818EE692E00E945305C2
:103100009FEFA91AB90A89859A85AB85BC850D966A
:10311000A11DB11D89879A87AB87BC87A98DBA8D00
:103120001196BA8FA98F8D819E81AF81B885469700
:10313000A109B1098D839E83AF83B887811491045F
:1031400096E1A906B10409F051CF0E94CC078D8504
:103150009E85AF85B8899F5FAF4FBF4F009725E031
:10316000A207B1057CF48093BD019093BE01A093AA
:10317000BF01B093C0012114310409F4D7CE0E94DD
:103180000000D4CE1092BD011092BE011092BF017A
:103190001092C001F0CF80910401C0900501D12CA4
:1031A000F12CE12CFE2CED2CDC2CCC24E82A809197
:1031B0000601C82AC701B6010E94EA04AB01BC019E
:1031C00084E892E00E94BF05C701B6010E94EA04AC
:1031D000AB01BC018EE692E00E94BF050E94CC07C5
:1031E000CACF90E080E00E94110BC5CF81E090E053
:1031F000FACF81E090E00E945212BDCF81E090E0D2
:103200000E94690EB8CF82E090E0F5CF82E090E0B6
:10321000F7CF0E942C03C090C301D090C401E0906E
:10322000C501F090C6016C197D098E099F09683EA1
:1032300073408105910508F49ECF0E942C03609392
:10324000C3017093C4018093C5019093C6010E948D
:10325000D2140E94EF1A6B017C010E94EF1A24E144
:1032600030E040E050E00E945D1B4B01C701B60119
:1032700023E030E040E050E00E945D1B84019B01B0
:103280004091060160910501809104010E94180897
:1032900072CF84E892E00E94EA138EE692E00E94E8
:1032A000EA139CCF8F929F92AF92BF92CF92DF9200
:1032B000EF92FF920F931F93CF93DF93E6E1F2E03B
:1032C00082E3882E912C9382828290E9A92EBB24DE
:1032D000B394B582A48220E2C22E23E0D22ED782FC
:1032E000C68238EEE32E33E0F32EF186E0861386B5
:1032F00012861586148617861686118A108A138AF6
:10330000128A158A148A178A168A118E108E138EC5
:10331000128E158E148E178E168E11A210A213A265
:1033200012A215A214A217A216A211A610A613A6E5
:1033300012A615A614A617A616A611AA10AA13AAB5
:1033400012AA14AACFEFDFEFD6ABC5ABD0AFC7AB95
:1033500011AE12AE13AE14AE10925302109254027C
:103360001092550210925602109257021092580273
:103370001092590210925A0210925C0210925B0253
:1033800001E010E010935E0200935D021092600273
:1033900010925F0210926102109262021092630218
:1033A0001092640282E090E09183808362E00E9448
:1033B0008002E7ECF1E093828282B582A482D78218
:1033C000C682F186E08613861286158614861786D5
:1033D0001686118A108A138A128A158A148A178A05
:1033E000168A118E108E138E128E158E148E178ED5
:1033F000168E11A210A213A212A215A214A217A235
:1034000016A211A610A613A612A615A614A617A6F4
:1034100016A611AA10AA13AA12AA14AAD6ABC5AB53
:10342000D0AFC7AB11AE12AE13AE14AE1092040201
:1034300010920502109206021092070210920802E2
:103440001092090210920A0210920B0210920D02C1
:1034500010920C0210930F0200930E0210921102B0
:103460001092100210921202109213021092140283
:103470001092150283E090E09183808362E00E94C5
:10348000800269E070E084E892E00E943A1668E009
:1034900070E08EE692E00E943A166EE070E080E9FD
:1034A00091E00E94FA156FE070E083E691E00E94DF
:1034B000FA1560E170E086E391E00E94FA158091D0
:1034C000C1019091C201880F991FFC01E55EFE4F7A
:1034D000208131813093350120933401895E9E4FE4
:1034E000FC01808191819093330180933201DF91BF
:1034F000CF911F910F91FF90EF90DF90CF90BF90F1
:10350000AF909F908F90089580917702909178026C
:103510000E94AD1C809174029091750297FD03C0CA
:1035200060E00E94800280918D0290918E020E9444
:10353000AD1C80918A0290918B0297FD03C060E0E0
:103540000C94800208958F929F92AF92BF92CF9277
:10355000DF92EF92FF92CF93DF93EC016881798144
:103560008A819B81611571058105910521F464E2D1
:1035700079ED8BE597E02DE133EF41E050E00E94DB
:103580005D1B49015A019B01AC01A7EAB1E40E940D
:103590007C1B6B017C01ACEEB4EFA50194010E9491
:1035A0008A1BC60ED71EE81EF91EF7FE06C081E074
:1035B000C81AD108E10880E8F80AC882D982EA82EC
:1035C000FB82C701B6019F77DF91CF91FF90EF900B
:1035D000DF90CF90BF90AF909F908F9008958F9283
:1035E0009F92AF92BF92CF92DF92EF92FF92609143
:1035F000090170910A0180910B0190910C016115F4
:1036000071058105910521F464E279ED8BE597E080
:103610002DE133EF41E050E00E945D1B49015A016A
:103620009B01AC01A7EAB1E40E947C1B6B017C0109
:10363000ACEEB4EFA50194010E948A1BC60ED71E02
:10364000E81EF91EF7FE06C081E0C81AD108E1089D
:1036500080E8F80AC0920901D0920A01E0920B01B9
:10366000F0920C01C701B6019F77FF90EF90DF90B9
:10367000CF90BF90AF909F908F9008956093090175
:1036800070930A0180930B0190930C010895F999AE
:10369000FECF92BD81BDF89A992780B50895262F57
:1036A000F999FECF1FBA92BD81BD20BD0FB6F89427
:1036B000FA9AF99A0FBE01960895052E97FB1EF40B
:1036C00000940E94741B57FD07D00E948F1B07FCBB
:1036D00003D04EF40C94741B509540953095219571
:1036E0003F4F4F4F5F4F089590958095709561952E
:1036F0007F4F8F4F9F4F08950E94B11BA59F900D44
:10370000B49F900DA49F800D911D11240895B7FFC3
:103710000C947C1B0E947C1B821B930B0895A1E2DE
:103720001A2EAA1BBB1BFD010DC0AA1FBB1FEE1F3B
:10373000FF1FA217B307E407F50720F0A21BB30B86
:10374000E40BF50B661F771F881F991F1A9469F702
:1037500060957095809590959B01AC01BD01CF015E
:103760000895A29FB001B39FC001A39F700D811D5A
:103770001124911DB29F700D811D1124911D08957A
:10378000DB018F939F930E947C1BBF91AF91A29FFF
:10379000800D911DA39F900DB29F900D112408954F
:1037A000991B79E004C0991F961708F0961B881F93
:1037B0007A95C9F780950895AA1BBB1B51E107C0F4
:1037C000AA1FBB1FA617B70710F0A61BB70B881FB1
:1037D000991F5A95A9F780959095BC01CD01089540
:1037E00097FB072E16F4009407D077FD09D00E94AE
:1037F000DC1B07FC05D03EF4909581959F4F089502
:10380000709561957F4F0895EE0FFF1F0590F4911D
:10381000E02D09940E94B11BB7FF0895821B930B02
:1038200008950F931F93CF93DF938230910510F487
:1038300082E090E0E0919C02F0919D0230E020E077
:10384000B0E0A0E0309799F42115310509F44AC0A1
:10385000281B390B24303105D8F58A819B816115ED
:10386000710589F1FB0193838283FE0111C04081C0
:1038700051810281138148175907E0F04817590711
:1038800099F4109761F012960C93129713961C936B
:103890003296CF01DF91CF911F910F910895009340
:1038A0009C0210939D02F4CF2115310551F042176F
:1038B000530738F0A901DB019A01BD01DF01F801CE
:1038C000C1CFEF01F9CF90939D0280939C02CDCFA1
:1038D000FE01E20FF31F8193919322503109398346
:1038E0002883D7CF20919A0230919B02232B41F459
:1038F00020910F013091100130939B0220939A0286
:1039000020910D0130910E012115310541F42DB7A3
:103910003EB74091110150911201241B350BE091EB
:103920009A02F0919B02E217F307A0F42E1B3F0BC3
:103930002817390778F0AC014E5F5F4F2417350721
:1039400048F04E0F5F1F50939B0240939A02819361
:1039500091939FCFF0E0E0E09CCFCF93DF9300976F
:10396000E9F0FC01329713821282A0919C02B0917F
:103970009D02ED0130E020E01097A1F4208131811B
:10398000820F931F20919A0230919B0228173907CA
:1039900009F061C0F0939B02E0939A02DF91CF910E
:1039A0000895EA01CE17DF07E8F54A815B819E01A1
:1039B00041155105B1F7E901FB83EA83499159911A
:1039C000C40FD51FEC17FD0761F480819181029629
:1039D000840F951FE90199838883828193819B835A
:1039E0008A83F0E0E0E012968D919C911397009706
:1039F000B9F52D913C911197CD010296820F931F3D
:103A000020919A0230919B022817390739F6309796
:103A100051F510929D0210929C02B0939B02A093CC
:103A20009A02BCCFD383C28340815181840F951FFA
:103A3000C817D90761F44E5F5F4F88819981480F9D
:103A4000591F518340838A819B81938382832115EF
:103A5000310509F0B0CFF0939D02E0939C029ECF18
:103A6000FD01DC01C0CF13821282D7CFDC0101C07F
:103A70006D9341505040E0F7089511E0C7E6D1E062
:103A800004C0FE010E94041C2196C836D107C9F764
:043A9000F894FFCFD8
:103A940010101010FFFFFF04010100000000009E41
:103AA400028000190010000500020024000C000030
:00000001FF
