:100000000C9468010C946A160C9443160C9490019D
:100010000C9490010C9490010C9490010C9490011C
:100020000C9490010C9490010C9490010C9490010C
:100030000C9490010C9490010C9490010C949001FC
:100040000C94F9150C9490010C9490010C9490016F
:100050000C9490010C9490010C9490010C949001DC
:100060000C9490010C949001808386898C8F9295DA
:10007000989B9EA2A5A7AAADB0B3B6B9BCBEC1C499
:10008000C6C9CBCED0D3D5D7DADCDEE0E2E4E6E8F1
:10009000EAEBEDEEF0F1F3F4F5F6F8F9FAFAFBFC21
:1000A000FDFDFEFEFEFFFFFFFFFFFFFFFEFEFEFD6C
:1000B000FDFCFBFAFAF9F8F6F5F4F3F1F0EEEDEBEE
:1000C000EAE8E6E4E2E0DEDCDAD7D5D3D0CECBC98D
:1000D000C6C4C1BEBCB9B6B3B0ADAAA7A5A29E9B0B
:1000E0009895928F8C898683807C797673706D6AFF
:1000F0006764615D5A5855524F4C494643413E3BF7
:10010000393634312F2C2A282523211F1D1B19177E
:10011000151412110F0E0C0B0A090706050504032E
:1001200002020101010000000000000001010102C3
:1001300002030405050607090A0B0C0E0F11121421
:100140001517191B1D1F212325282A2C2F31343662
:10015000393B3E414346494C4F5255585A5D6164C4
:10016000676A6D707376797C000000000000000003
:10017000000000000000000000000000000000007F
:10018000010101010101010101010101020202025B
:10019000020202020303030303030404040405052B
:1001A00005050506060606070707080808090909E0
:1001B0000A0A0A0B0B0B0C0C0D0D0D0E0E0F0F1077
:1001C00010111112121313141415151616171818EE
:1001D00019191A1B1B1C1D1D1E1F1F202122222343
:1001E000242526262728292A2A2B2C2D2E2F30316C
:1001F00032333435363738393A3B3C3D3E3F404167
:10020000424445464748494B4C4D4E505152545537
:100210005658595A5C5D5E606163646667696A6CD2
:100220006D6F7072737577787A7C7D7F818284863A
:1002300088898B8D8F91929496989A9C9EA0A2A467
:10024000A6A8AAACAEB0B2B4B6B8BABCBFC1C3C55A
:10025000C7CACCCED1D3D5D7DADCDFE1E3E6E8EB11
:10026000EDF0F2F5F7FAFCFF000000002400270093
:100270002A0000000000250028002B0000000000DC
:1002800023002600290004040404040404040202D8
:100290000202020203030303030302020301020436
:1002A00008102040800102040810200102040810F8
:1002B00020408040000000090003020000040508FF
:1002C000000000000000000000000000C1196C1ACE
:1002D00011241FBECFEFD8E0DEBFCDBF11E0A0E0FC
:1002E000B1E0E4E6FAE302C005900D92A432B10752
:1002F000D9F722E0A4E2B1E001C01D92A335B20714
:10030000E1F711E0C7E6D1E004C02197FE010E94A9
:10031000EC1BC636D107C9F70E9423170C94251D84
:100320000C940000CF92DF92EF92FF92E62F9C0197
:10033000AAEFB5E00E94991BDC01CB019058AF4FAA
:10034000BF4FCD01BB2797FDB095AB2F8E3F41E04E
:10035000940798F5782F8F3F910508F44DC04EEF24
:10036000481B50E07FEFF0E0319630E0272FDF01AF
:100370000E94F21B6B017C01CC24EE24FF24252F6C
:100380000E94F21B672F782F892F9927C62AD72A18
:10039000E82AF92A242F0E94F21B982F872F762F04
:1003A00066276627772799276C297D298E299F291B
:1003B000FF90EF90DF90CF9008958C3F43E094073B
:1003C00060F452E0580F7FEF8D3F42E0940718F041
:1003D0007CEF781B5FEF40E0C6CF8A3F45E0940793
:1003E00071F05AEF581B8B3F44E0940748F444E007
:1003F000480F5FEF70E0B7CF50E04FEFB4CF50E061
:1004000070E0FBCFFC018281938168177907E0F4EB
:10041000A685218532858385A81317C0CB01880F57
:10042000991F680F791F620F731FA385A60FB72F3F
:10043000B11D1C92A485A60FB72FB11D1C928585F6
:10044000680F711DFB0110820895660F771F660FFC
:10045000771F620F731FA60FB72FB11D1C92E5CF38
:10046000843081F028F48230E9F08330F9F0089587
:10047000883071F0893091F08530B9F48091800036
:100480008F7D03C0809180008F77809380000895D6
:100490008091B0008F778093B00008958091B00074
:1004A0008F7DF9CF84B58F7784BD089584B58F7D16
:1004B000FBCFCF93DF93282F30E0F901EC54FD4FB1
:1004C0008491F901E356FD4FD491F901EA57FD4FAC
:1004D000C491CC2391F081110E943002EC2FF0E006
:1004E000EE0FFF1FEE58FD4FA591B4918FB7F89412
:1004F000EC91D095DE23DC938FBFDF91CF910895EF
:10050000CF93DF9390E0FC01E356FD4F24918A578F
:100510009D4FFC0184918823C9F090E0880F991FBA
:10052000FC01E859FD4FA591B491FC01EE58FD4F37
:10053000C591D49161110DC09FB7F8948C9120950D
:1005400082238C938881282328839FBFDF91CF91BA
:100550000895623051F49FB7F8943C91822F8095B2
:1005600083238C93E8812E2BEFCF8FB7F894EC91F7
:100570002E2B2C938FBFEACF883020F08D3008F4DB
:100580008DE08E508770806480937C0080917A002B
:10059000806480937A0080917A0086FDFCCF809100
:1005A00078009091790008953FB7F8948091D00138
:1005B0009091D101A091D201B091D30126B5A89B11
:1005C00005C02F3F19F00196A11DB11D3FBFBA2FE5
:1005D000A92F982F8827BC01CD01620F711D811DA5
:1005E000911D43E0660F771F881F991F4A95D1F729
:1005F00008958F929F92AF92BF92CF92DF92EF9227
:10060000FF926B017C010E94D4024B015C01C1147A
:10061000D104E104F104B9F00E94D4026819790907
:100620008A099B09683E73408105910580F321E0AA
:10063000C21AD108E108F10888EE880E83E0981EFE
:10064000A11CB11CE4CFFF90EF90DF90CF90BF9042
:10065000AF909F908F9008952FB7F8946091CC0140
:100660007091CD018091CE019091CF012FBF08955F
:10067000CF92DF92EF92FF920F931F93CF93DF936E
:10068000209100023091010237FDE3C03327F901C8
:10069000EC54FD4F8491F901E356FD4FD491F901DB
:1006A000EA57FD4FC491CC2309F46FC081110E9419
:1006B0003002EC2FF0E0EE0FFF1FE458FD4FA59144
:1006C000B491EC91ED2391E080E009F490E0C92F22
:1006D000D82F0E942C0360933D0270933E028093BA
:1006E0003F029093400220913702309138022C173C
:1006F0003D0709F04DC00091390210913A02209156
:100700003B0230913C026B017C01C01AD10AE20A23
:10071000F30A009102021091030230E020E0C016BB
:10072000D106E206F30620F0D0933602C0933502DC
:10073000C0913502D091360200910A0210910B024D
:10074000C0904102D0904202E0904302F0904402F7
:100750009B01AC012C193D094E095F0969017A0121
:1007600020913202309133022230310509F4A4C0C5
:10077000E4F421153105B9F12130310509F472C0D5
:10078000109233021092320264C0D0E0C0E0A1CFD8
:100790006093390270933A0280933B0290933C023B
:1007A000D0933802C0933702C3CF2630310509F405
:1007B000F6C02730310509F433C12330310501F784
:1007C0000C171D0709F084C021E030E0309333029C
:1007D000209332026093410270934202809343025D
:1007E0009093440236C080913402811115C08091EB
:1007F000080290910902B0E0A0E08C159D05AE05BD
:10080000BF0550F4E0913002F0913102309721F0B1
:1008100081E08093340209950C171D07D1F481E023
:1008200090E0909333028093320280913D02909148
:100830003E02A0913F02B09140028093410290930A
:100840004202A0934302B0934402109246021092D7
:100850004502DF91CF911F910F91FF90EF90DF90B4
:10086000CF90089522E030E00C171D0709F0AECFBD
:100870008091060290910702B0E0A0E08C159D05E2
:10088000AE05BF0530F7E0911E02F0911F023097D0
:1008900009F00995E0912002F0912102309729F0AA
:1008A0008091220290912302099586E090E0909336
:1008B000330280933202CDCF80914502909146025F
:1008C0000196909346028093450283E090E0EFCF3B
:1008D0008091450290914602409104025091050298
:1008E00070E060E0C416D506E606F70640F42091F5
:1008F0004702309148022817390709F0AACF813002
:10090000910531F5E0910C02F0910D02309709F05C
:100910000995E0910E02F0910F02809110029091E2
:100920001102309741F51092330210923202109268
:100930004602109245020E942C036093410270937C
:10094000420280934302909344021092340281CF7A
:10095000029799F4E0911202F0911302309709F096
:100960000995E0911402F091150280911602909180
:1009700017023097C1F20995D6CFE0911802F09195
:100980001902309709F00995E0911A02F0911B02C3
:1009900080911C0290911D02309769F7C4CF0C170B
:1009A0001D0719F087E090E082CF00914B02109173
:1009B0004C0220914D0230914E02601B710B820B54
:1009C000930B0091490210914A0230E020E0601739
:1009D00071078207930708F43CCFE0912A02F09157
:1009E0002B02309709F00995E0912C02F0912D022D
:1009F000309729F080912E0290912F0209958091D5
:100A00003D0290913E02A0913F02B091400280933E
:100A10004B0290934C02A0934D02B0934E0219CF1B
:100A2000E0912402F0912502309709F00995E091B8
:100A30002602F0912702309709F475CF80912802A1
:100A40009091290298CF0C94380384E180930B0194
:100A500008950895CF92DF92EF92FF920F931F9324
:100A6000CF93DF93CDB7DEB729970FB6F894DEBFEB
:100A70000FBECDBF8C010E94D402D8011F96CD902D
:100A8000DD90ED90FC9052976C157D058E059F05CD
:100A900028F4F8016787708B818B928BD8011F96A1
:100AA000CD90DD90ED90FC9052976C197D098E09E8
:100AB0009F096C32714081059105E8F2F894F801C4
:100AC000848195819A838983A185B2857D01FFEF19
:100AD000EF1AFF0A8C918F83D8018C9153960D9059
:100AE000BC91A02D882309F434C11C82AB32B1051E
:100AF00009F076C09BB1F8018589982B98879BB146
:100B000080958923898789858B838F8187FF02C0A0
:100B100088858B83588569854F813B812C818981AC
:100B20009A81D7015BB9262F3BB900C046FD252F1E
:100B30006BB900C05BB9362F2BB900C045FD352F0E
:100B40006BB900C05BB9262F3BB900C044FD252F0F
:100B50006BB900C05BB9362F2BB900C043FD352FF0
:100B60006BB900C05BB9262F3BB900C042FD252FF1
:100B70006BB900C05BB9362F2BB900C041FD352FD2
:100B80006BB900C05BB9262F3BB900C040FD252FD3
:100B90006BB901975BB9362F2BB94D9147FD352FB6
:100BA0006BB901F64F833B832C839A8389837894B6
:100BB0000E94D402D8011F966D937D938D939C93D0
:100BC000529729960FB6F894DEBF0FBECDBFDF91C6
:100BD000CF911F910F91FF90EF90DF90CF900895EC
:100BE000A532B10509F059C095B1F8018589982B56
:100BF000988795B180958923898789858B838F8193
:100C000087FF02C088858B83588569854F813B812A
:100C10002C8189819A81D70155B9262F35B900C019
:100C200046FD252F65B900C055B9362F25B900C03E
:100C300045FD352F65B900C055B9262F35B900C01F
:100C400044FD252F65B900C055B9362F25B900C020
:100C500043FD352F65B900C055B9262F35B900C001
:100C600042FD252F65B900C055B9362F25B900C002
:100C700041FD352F65B900C055B9262F35B900C0E3
:100C800040FD252F65B9019755B9362F25B94D91EE
:100C900047FD352F65B901F685CF989709F087CFC5
:100CA00098B1F8018589982B988798B18095892308
:100CB000898789858B838F8187FF02C088858B8395
:100CC000588569854F813B812C8189819A81D70123
:100CD00058B9262F38B900C046FD252F68B900C085
:100CE00058B9362F28B900C045FD352F68B900C066
:100CF00058B9262F38B900C044FD252F68B900C067
:100D000058B9362F28B900C043FD352F68B900C047
:100D100058B9262F38B900C042FD252F68B900C048
:100D200058B9362F28B900C041FD352F68B900C029
:100D300058B9262F38B900C040FD252F68B9019752
:100D400058B9362F28B94D9147FD352F68B901F6AE
:100D500029CF9C91F8018589982B98879C91809543
:100D60008923898789858D8388E08E835885698565
:100D70004F813E812D8189819A81F7015C9347FDE6
:100D8000252F2C93262F3A9531F0441F6C9300C0E9
:100D900000C000C0F3CF6C93000038E04191019790
:100DA00069F7F801B48BA38B4F833E832D83FDCE6F
:100DB000CF93DF9300D000D0CDB7DEB769837A83BD
:100DC0008B839C83DE011196CE010596ED91F0E0B8
:100DD000E859FE4F44919D0121503109F9014083AA
:100DE0008A179B0799F769817A818B819C810F9083
:100DF0000F900F900F90DF91CF910895FF920F9376
:100E00001F93CF93DF93EC01FF24F394F60E288514
:100E10002F1589F109851A85215049F16F3FE9F4B1
:100E200030E050E040E06FEF7FEF80E090E00E9424
:100E3000451BB901F8014C815D81CF01801B910BED
:100E400084179507B8F4DF014D91469FC001479F75
:100E5000900D11249083FD01EECF8F2D90E0982FFF
:100E600088270197622F70E00E94C41BE3CF70E0D7
:100E700060E0E0CFF886DF91CF911F910F91FF9056
:100E800008958F929F92AF92BF92CF92DF92EF928E
:100E9000FF921F93CF93DF93FC01828193816817A8
:100EA0007907A8F54A01AA24BB24C82DC32ED42E45
:100EB000E52EFF241C2DD22F8085882361F0889E8B
:100EC00040011124C92D8C9D600111241D2D829F8C
:100ED000D0011124DB2FA685E184F2849385A91328
:100EE00022C0CB01880F991F680F791F6E0D7F1DDF
:100EF000A385A60FB72FB11DCC93A485A60FB72F3E
:100F0000B11D1C938585680F711DFB01D083DF9196
:100F1000CF911F91FF90EF90DF90CF90BF90AF9057
:100F20009F908F900895660F771F660F771F6E0D45
:100F30007F1D252F332744275527882349F090E02C
:100F4000829F7001839FF00C929FF00C11242F2D33
:100F5000A60FB72FB11D2C93CBCF8F929F92AF923C
:100F6000BF92EF92FF920F931F93CF93DF93FC01F9
:100F7000E280F380E114F10479F04A015B018C0115
:100F8000D0E0C0E0A5019401BE01C8010E94410764
:100F90002196EC16FD06B1F7DF91CF911F910F91CD
:100FA000FF90EF90BF90AF909F908F9008950F9318
:100FB0001F93CF93DF93681718F0962F682F892F10
:100FC000C62FD0E0082F10E0452B89F00C171D0725
:100FD000FCF060E070E0CB010E94D8069B01AC0100
:100FE000BE0184ED91E00E9441072196EFCF0C17DE
:100FF0001D0774F060E070E0CB010E94D8069B01F1
:10100000AC01BE018AEE91E00E9441072196EFCF2C
:10101000DF91CF911F910F910895CF93DF93EC0152
:101020008E819F8197FD06C061E00E9480028E81C3
:101030000E94590281E08983DF91CF9108958091C8
:10104000F3019091F401892B21F08AEE91E00E9446
:101050002A058091DD019091DE01892B21F084ED3C
:1010600091E00C942A050895CF92DF92EF92FF92BF
:10107000CF93DF93C42ED12CF12CE12CD62AE82A71
:10108000D0E0C0E0C701B6010E94D8069B01AC01C8
:10109000BE018AEE91E00E944107C701B6010E949D
:1010A000D8069B01AC01BE0184ED91E00E9441078E
:1010B0000E941F086AE070E080E090E00E94F90260
:1010C0002196C933D105F1F6DF91CF91FF90EF90D2
:1010D000DF90CF9008952F923F924F925F926F9240
:1010E0007F928F929F92AF92BF92CF92DF92EF92B8
:1010F000FF920F931F93CF93DF93CDB7DEB7A697E1
:101100000FB6F894DEBF0FBECDBF962F190150E089
:1011100070E060E0592B2A013B01682A8DE090E0E5
:101120009EA38DA31D821E821F821886198A1A8A89
:101130001B8A1C8A1D861E861F86188A1D8A1E8A87
:101140001F8A188E19861A861B861C86C801110FE5
:10115000AA0BBB0B89A39AA3ABA3BCA391E029164E
:10116000310409F4A8C0A2E02A16310409F4E3C14D
:101170002114310409F07DC1C301B2010E94D806D7
:101180006B017C016D857E858F8598899095809512
:10119000709561957F4F8F4F9F4F26E130E040E083
:1011A00050E00E94451B4901A7019601B4018AEE57
:1011B00091E00E944107C301B2010E94D8066983F1
:1011C0007A838B839C836D817E818F8198859095B6
:1011D0008095709561957F4F8F4F9F4F26E130E04E
:1011E00040E050E00E94451B69017A01BCE0CB0E53
:1011F000D11CE11CF11C29813A814B815C81B60133
:101200008AEE91E00E944107C301B2010E94D80614
:101210009B01AC01B40184ED91E00E944107C30140
:10122000B2010E94D8069B01AC01B60184ED91E0A9
:101230000E944107C301B2010E94D8064B015C0124
:1012400069857A858B859C8526E130E040E050E019
:101250000E94451B69017A0182E2C80ED11CE11C83
:10126000F11CA5019401B6018AEE91E00E944107AC
:10127000C301B2010E94D8069B01AC01ADA0BEA083
:1012800096E1A90EB11CB5018AEE91E00E944107DA
:10129000C301B2010E94D8069B01AC01B60184EDE6
:1012A00091E00E944107C301B2010E94D8069B0150
:1012B000AC01B501DAC06D897E898F89988D26E1F0
:1012C00030E040E050E00E94451BDA01C901895D31
:1012D0009948AF4FBF4F6FEF0E94920169837A83A5
:1012E0008B839C830E94D8066B017C016D857E8573
:1012F0008F85988926E130E040E050E00E94451B50
:10130000DA01C9010496A11DB11D898F9A8FAB8F97
:10131000BC8FA7019601698D7A8D8AEE91E00E94BB
:10132000410769897A898B899C8926E130E040E010
:1013300050E00E94451BDA01C9018B5A954AAF4F14
:10134000BF4F6FEF0E9492014B015C010E94D806D3
:101350006D8F7E8F8F8F98A36D817E818F81988511
:1013600026E130E040E050E00E94451B69017A012F
:1013700095E0C90ED11CE11CF11C2D8D3E8D4F8DC9
:1013800058A1B6018AEE91E00E94410769817A81F5
:101390008B819C810E94D8069B01AC01698D7A8D5E
:1013A00084ED91E00E944107C501B4010E94D80676
:1013B0009B01AC01B60184ED91E00E9441076D8173
:1013C0007E818F8198852DE0660F771F881F991F7A
:1013D0002A95D1F726E130E040E050E00E94451B1D
:1013E0006FEFC9010E9492014B015C010E94D80677
:1013F0009B01AC016DA17EA18AEE91E00E944107A4
:10140000C501B4010E94D80669837A838B839C83CB
:1014100069857A858B859C8526E130E040E050E047
:101420000E94451B69017A01A8E3CA0ED11CE11C88
:10143000F11C29813A814B815C81B6018AEE91E0F1
:101440000E944107C501B4010E94D8069B01AC016E
:101450006DA17EA184ED91E00E944107C501B40118
:101460000E94D8069B01AC01B60184ED91E00E9478
:10147000410769A17AA18BA19CA10E94F9020E9457
:101480001F0889859A85AB85BC854697A109B10956
:1014900089879A87AB87BC878D899E89AF89B88DEC
:1014A00085589A46A109B1098D8B9E8BAF8BB88F59
:1014B0008D859E85AF85B8890597A109B1098D876E
:1014C0009E87AF87B88B89899A89AB89BC898555F6
:1014D0009A45AF4FBF4F898B9A8BAB8BBC8B8D815D
:1014E0009E81AF81B8850896A11DB11D8D839E8315
:1014F000AF83B887ADA1BEA11196BEA3ADA393974C
:1015000009F02CCEA6960FB6F894DEBF0FBECDBF65
:10151000DF91CF911F910F91FF90EF90DF90CF90CF
:10152000BF90AF909F908F907F906F905F904F9003
:101530003F902F900895C301B2010E94D8066B011D
:101540007C016D857E858F85988926E130E040E0BD
:1015500050E00E94451B49015A01B4E08B0E911CDA
:10156000A11CB11CA7019601B4018AEE91E00E9472
:101570004107C301B2010E94D80669837A838B8335
:101580009C836D817E818F81988526E130E040E0EB
:1015900050E00E94451B69017A0185E0C80ED11C0C
:1015A000E11CF11C29813A814B815C81B6018AEEF4
:1015B00091E00E944107C301B2010E94D8069B013D
:1015C000AC01B40184ED91E00E944107C301B20176
:1015D0000E94D8069B01AC01B60184ED91E00E9407
:1015E0004107C301B2010E94D8069B01AC016DA165
:1015F0007EA18AEE91E00E944107C301B2010E94E0
:10160000D8066B017C0169857A858B859C8526E1EE
:1016100030E040E050E00E94451B275C3F4F4F4FB9
:101620005F4F590191E0A91AB108A7019601B501D0
:101630008AEE91E00E944107C301B2010E94D806E0
:101640009B01AC016DA17EA12ACE0F931F9385351E
:1016500098F4982F990F990F282F291B2150682F44
:10166000660F860F90E0B0E0A0E077276627722B28
:101670001F910F910C94D8068A3AA8F48555982F9B
:10168000990F990F482F491B415050E070E060E0DE
:10169000BA0155274427982F990F890F8A01082BE3
:1016A000CB01B801E5CF8A5A482F440F480F50E0CC
:1016B00070E060E0762F652F542F4427982F990F04
:1016C000990F891B8150EACF2F923F924F925F92E0
:1016D0006F927F928F929F92AF92BF92CF92DF9242
:1016E000EF92FF920F931F93CF93DF93CDB7DEB7A7
:1016F00062970FB6F894DEBF0FBECDBF9A83898381
:10170000892B21F020E830E03A8329830E942C03C2
:101710000091260110912701209128013091290183
:10172000601B710B820B930B6F3071058105910566
:1017300008F404C1C0902401D0902501D886CF823E
:101740000E942C0360932601709327018093280147
:1017500090932901D980DC0CED2CF12C97012859AC
:101760003F4F3A8329838F8198859927AC01485947
:101770005F4F1A018091C5019091C601892B09F430
:1017800002C1412C512C32010DE010E01B821C8261
:101790001D821E82C12CD12C7601C701B60126E123
:1017A00030E040E050E00E94451B8091C1019091E3
:1017B000C201820F931F9A8B898BF10164910E9461
:1017C00092010E94D8064B015C016B817C818D8166
:1017D0009E8126E130E040E050E00E94451B2987D1
:1017E0003A874B875C87A501940169857A858AEEE3
:1017F00091E00E944107F101649189899A890E94D0
:1018000092010E94D8069B01AC01B8018AEE91E0DA
:101810000E944107F101649189899A890E9492018D
:101820000E94D8066D877E878F87988BC301B2018F
:1018300026E130E040E050E00E94451B49015A019A
:10184000F8E38F0E911CA11CB11C2D853E854F85A0
:101850005889B4018AEE91E00E944107E981FA813A
:10186000649189899A890E9492010E94D8069B01FD
:10187000AC0169857A8584ED91E00E944107E98198
:10188000FA81649189899A890E9492010E94D806FE
:101890009B01AC01B80184ED91E00E944107E98110
:1018A000FA81649189899A890E9492010E94D806DE
:1018B0009B01AC01B40184ED91E00E944107FFEF70
:1018C000EF1AFF0A2B813C814D815E81235F3F4FE0
:1018D0004F4F5F4F2B833C834D835E830F5F1F4FC2
:1018E00036E1431A510861087108C114D10446E178
:1018F000E406F10409F051CF8F8198850196909309
:101900002501809324010E941F088091C1019091BC
:10191000C201A091C301B091C4019D5FAF4FBF4F01
:10192000009725E0A207B1050CF095C08093C10196
:101930009093C201A093C301B093C401809124018C
:101940009091250160E071E00E94D81B90932501E1
:101950008093240162960FB6F894DEBF0FBECDBF10
:10196000DF91CF911F910F91FF90EF90DF90CF907B
:10197000BF90AF909F908F907F906F905F904F90AF
:101980003F902F900895F0900A01FA012491109150
:1019900009013491009108012490029DC001112495
:1019A0006FEF70E00E94D81B462F139FC0011124D7
:1019B0006FEF70E00E94D81B862E912CB12CA12CC9
:1019C000BA2CA92C982C8824A42AF29EC001112498
:1019D0006FEF70E00E94D81BA5019401262BCA016D
:1019E000B9010E94D806AB01BC018AEE91E00E94C9
:1019F000AD07E981FA81449124918491089FC00147
:101A000011246FEF70E00E94D81BE62F129FC001D7
:101A100011246FEF70E00E94D81B062F10E030E019
:101A200020E0322F212F102F00272E2BF49EC001F3
:101A300011246FEF70E00E94D81B68017901C62A5B
:101A4000C701B6010E94D806AB01BC0184ED91E04C
:101A50000E94AD0751CF1092C1011092C2011092A5
:101A6000C3011092C4016ACF80910B01843089F0C8
:101A700018F4833031F00895853019F0863049F03C
:101A8000089589E1809394018093670180933A01DE
:101A900008958091C5019091C601880F991FFC019E
:101AA000E15EFE4F2081318130933901209338016E
:101AB000FC01E55EFE4F2081318130933701209398
:101AC0003601895E9E4FFC018081DCCFCF92DF9290
:101AD000EF92FF921F93CF93DF93EC01162F6623B3
:101AE00049F10E942C036A836D817E81AB81BC81A8
:101AF00028816A177B0708F0269530E080E290E0A5
:101B0000821B930B869FA001879F500D969F500DBF
:101B100011240E94991B640F751F811D911D25E0E2
:101B200096958795779567952A95D1F77C836B83F2
:101B300011E013C00E942C037727882799272A8158
:101B4000621B710981099109C980D12CF12CE12C0A
:101B50006C157D058E059F0520F6812FDF91CF91B5
:101B60001F91FF90EF90DF90CF9008958F929F92FA
:101B7000AF92BF92CF92DF92EF92FF920F931F939B
:101B8000CF93DF93EC018BA581111BA660E0CE0102
:101B90000E94660D8E01095F1F4F60E0C8010E9420
:101BA000660D882311F01CA21BA28F859889892BB2
:101BB00009F0A9C08F859889892B31F00E94D40241
:101BC0006B8F7C8F8D8F9E8F8E850E94BC0229A18A
:101BD0003AA12817390708F49C013AA329A34F8D8D
:101BE00058A18417950708F4AC0158A34F8F8C892E
:101BF0008F5F8C8B9B89891708F49BC0C901841B5C
:101C0000950B9EA38DA32BA13CA12817390708F49F
:101C10009C013CA32BA33D872C872A853B85281755
:101C2000390720F461E0C8010E94660D2DA13EA194
:101C300089889A888216930608F089C0EA85FB8510
:101C40008E169F0608F083C00E891D89C12ED12CE7
:101C5000F12CE12CB12CA12C50E040E028193909DD
:101C60004A095B09602F70E090E080E06C197D0903
:101C70008E099F090E94A81B9F0150E040E028198F
:101C800039094A095B090E94451BC20ED31EE41E96
:101C9000F51E812F90E0C816D90630F0802F90E015
:101CA000C816D90608F4C6019E838D8361E0CE0173
:101CB0000E94660D8D819E812CA521114BC028A507
:101CC00028171906B8F00E942C030F89188D298D4A
:101CD0003A8DAB01BC01401B510B620B730B89A504
:101CE0009AA5B0E0A0E0481759076A077B0710F0F3
:101CF00081E08CA71C8A1AA219A280E69AEE98A30A
:101D00008F8F81E017C00E94D402CB8CDC8CED8CCD
:101D1000FE8CAB01BC014C195D096E097F098F85F2
:101D20009889B0E0A0E0481759076A077B0708F0D8
:101D300041CF80E0DF91CF911F910F91FF90EF9005
:101D4000DF90CF90BF90AF909F908F9008951E82AC
:101D50001D82B0CF2FA12817190660F61CA681E0BE
:101D60008BA70E942C036F8B788F898F9A8FC2CF9D
:101D70002F923F924F925F926F927F928F929F929B
:101D8000AF92BF92CF92DF92EF92FF921F93CF93C9
:101D9000DF93CDB7DEB728970FB6F894DEBF0FBE3E
:101DA000CDBF9E838D8384E991E00E94B60D882388
:101DB00009F495C22D813E81C0909701D090980181
:101DC0002130310521F0C0903D01D0903E01F12C31
:101DD000E12CA3EFBFEFA70196010E94721B24E63E
:101DE00030E040E050E00E94451BDA01C9010D9649
:101DF000A11DB11D89839A83AB83BC8329803A805E
:101E0000AD81BE81119709F08EC220916A01309197
:101E10006B013E832D838091C5019091C60100978F
:101E200009F088C28091090180900801912CB12CA1
:101E3000A12C540199248824982A80910A01882A87
:101E4000C501B4010E94D806AB01BC018AEE91E045
:101E50000E94AD07C501B4010E94D806AB01BC01C8
:101E600084ED91E00E94AD07809103018215130477
:101E700031F028F0A981A093030110923501AAEE58
:101E8000BFEFA70196010E94721B24E630E040E0FC
:101E900050E00E94451B69017A01B6E1CB0ED11CCE
:101EA000E11CF11CD886CF82809102018C151D04A3
:101EB00029F020F0C0920201109234013EE0231676
:101EC000310440F46DE04981641B50E040E08CE057
:101ED0000E94D7078F819885479770F463E26C1949
:101EE00050E040E083E20E94D70762E26C0D50E0D0
:101EF00040E083E20E94D707AD81BE816D01F12CE5
:101F0000E12CA3EFBFEFA70196010E94721B24E60C
:101F100030E040E050E00E94451B29013A01BDE05D
:101F20004B0E511C611C711C5201809101018415E2
:101F3000150429F020F04092010110923301AAEE1D
:101F4000BFEFA70196010E94721B24E630E040E03B
:101F500050E00E94451B69017A0186E1C80ED11C40
:101F6000E11CF11CDA82C982809100018C151D04EC
:101F700029F020F0C092000110923201BEE0AB16B1
:101F8000B10438F46DE0641941E050E08CE00E9447
:101F9000D70729813A812731310570F463E26C1942
:101FA00041E050E083E20E94D70762E26C0D41E01D
:101FB00050E083E20E94D707709003018DE090E02B
:101FC0004C0187189108B0900201F6E1CF2ED12C78
:101FD000CB18D108A09001017C01EA18F1081091FA
:101FE000000146E150E0411B51095A83498360E0FA
:101FF00070E0CB0181149104C9F08091C5019091EA
:10200000C601019709F020C2B40190E080E0CB0145
:10201000772766272CE030E040E050E00E94451B27
:102020006FEFC9010E9492010E94D8069B01AC018A
:10203000B4018AEE91E00E94410760E070E0CB01BC
:10204000C114D104C9F08091C5019091C6010197D6
:1020500009F00AC2B60190E080E0CB01772766273D
:1020600026E130E040E050E00E94451B6FEFC901DF
:102070000E9492010E94D8069B01AC01B601635FE9
:102080007F4F8AEE91E00E94410760E070E0CB0153
:10209000C114D104C9F08091C5019091C601019786
:1020A00009F0F2C1B60190E080E0CB017727662706
:1020B00026E130E040E050E00E94451B6FEFC9018F
:1020C0000E9492010E94D80628E330E0F901EC1941
:1020D000FD099B01AC01BF018AEE91E00E9441071E
:1020E00060E070E0CB01E114F104C9F08091C5011A
:1020F0009091C601019709F0D7C1B70190E080E047
:10210000CB01772766272CE030E040E050E00E94CA
:10211000451B6FEFC9010E9492010E94D8069B01E6
:10212000AC01B70184ED91E00E94410789819A8159
:10213000892B09F4D9C18091C5019091C6010197FD
:1021400009F0C2C1A981BA81BD0190E080E0CB0154
:102150007727662726E130E040E050E00E94451BEB
:102160006FEFC9010E9492010E94D8069B01AC0149
:1021700069817A81635F7F4F84ED91E00E9441071E
:1021800029813A8160E070E0CB0121153105C9F069
:102190008091C5019091C601019709F0A9C1B901CB
:1021A00090E080E0CB017727662726E130E040E031
:1021B00050E00E94451B6FEFC9010E9492010E94EE
:1021C000D80628E330E0F90149815A81E41BF50B78
:1021D0009B01AC01BF0184ED91E00E9441070E9488
:1021E0001F088091C1019091C201A091C301B091DB
:1021F000C4019F5FAF4FBF4F009755E0A507B105E2
:102200000CF086C18093C1019093C201A093C301D9
:10221000B093C4018091350120913801309139018A
:102220008217130609F00CF47CC1809131018F5F95
:102230008093310140913601509137018417150682
:102240002CF073947092030110923101809133014C
:102250008217130609F00CF468C1809130018F5F7A
:102260008093300140913601509137018417150653
:102270002CF0A394A09201011092300180913401BE
:102280008217130609F00CF454C180912F018F5F5F
:1022900080932F0140913601509137018417150624
:1022A0002CF0B394B092020110922F018091320170
:1022B0008217130609F00CF440C180912E018F5F44
:1022C00080932E0120913601309137018217130639
:1022D00094F01F5F1093000110922E010CC087E64E
:1022E00091E00E94B60D811165CD8AE391E00E94D4
:1022F000B60D81115FCD28960FB6F894DEBF0FBEE4
:10230000CDBFDF91CF911F91FF90EF90DF90CF90E5
:10231000BF90AF909F908F907F906F905F904F9005
:102320003F902F90089540913D0150913E015E8372
:102330004D8371CD019709F097CD13EF812C912C2E
:10234000540118861F82C501B4012CE030E040E042
:1023500050E00E94451B6FEFC9010E9492012B01C2
:102360003C010E94D8069B01AC016F8178858AEE02
:1023700091E00E944107C301B2010E94D8069B016F
:10238000AC016F81788584ED91E00E9441071631A0
:1023900028F5C501B4010D9725E130E040E050E09B
:1023A0000E94451B6FEFC9010E9492012B013C0165
:1023B0000E94D8069B01AC016F8178858AEE91E07E
:1023C0000E944107C301B2010E94D8069B01AC01E3
:1023D0006F81788584ED91E00E9441078AEE810F3C
:1023E000863128F5C501B401C8972BEE3FEF4FEFBA
:1023F0005FEF0E94451B6FEFC9010E9492012B0104
:102400003C010E94D8069B01AC016F8178858AEE61
:1024100091E00E944107C301B2010E94D8069B01CE
:10242000AC016F81788584ED91E00E9441078F8136
:102430009885019698878F839FEFA91AB90A1F5F25
:102440001C3209F080CF10CD209108016091090164
:1024500070E090E080E0982F872F762F6627822B00
:1024600020910A01622BE0CD2091080160910901C1
:1024700070E090E080E0982F872F762F6627822BE0
:1024800020910A01622BF6CD20910801609109018B
:1024900070E090E080E0982F872F762F6627822BC0
:1024A00020910A01622B0ECE209108016091090152
:1024B00070E090E080E0982F872F762F6627822BA0
:1024C00020910A01622B29CE209108016091090117
:1024D00070E090E080E0982F872F762F6627822B80
:1024E00020910A01622B40CE60E070E0CB013ECE2D
:1024F000209108016091090170E090E080E0982F40
:10250000872F762F6627822B20910A01622B57CEC8
:102510001092C1011092C2011092C3011092C40125
:1025200079CE8F5F8093350191CE8F5F8093330199
:10253000A5CE8F5F80933401B9CE8F5F8093320137
:10254000DACE2F923F924F925F926F927F928F924C
:102550009F92AF92BF92CF92DF92EF92FF920F9332
:102560001F93CF93DF93CDB7DEB72E970FB6F894B6
:10257000DEBF0FBECDBF9A83898384E991E00E94BC
:10258000B60D882309F4FDC089819A81029709F06C
:102590001DC100913D0110913E019801AFEFB0E0E7
:1025A0000E94991B24E6C22ED12CE12CF12CA7010C
:1025B00096010E94451B322E20932C0130932D0151
:1025C0009801AFEFB0E00E94991BA70196010E940D
:1025D000451B222EF90130932B0120932A01809173
:1025E000C5019091C601892B09F4F9C019821A829C
:1025F0001B821C820DE010E01D821E821F82188645
:10260000412C512C3201C301B20126E130E040E0FF
:1026100050E00E94451BA091C101B091C201A20FE0
:10262000B31FBE87AD87632DCD010E9492016B0160
:102630007C010E94D8064B015C016D817E818F81F7
:10264000988526E130E040E050E00E94451B298754
:102650003A874B875C87A501940169857A858AEE64
:1026600091E00E944107C701B6010E94D8069B0174
:10267000AC01B8018AEE91E00E944107C701B601A2
:102680000E94D8064B015C0169817A818B819C8113
:1026900026E130E040E050E00E94451B69017A01EC
:1026A000B8E3CB0ED11CE11CF11CA5019401B601CD
:1026B0008AEE91E00E944107622D8D859E850E94E1
:1026C00092014B015C010E94D8069B01AC01698517
:1026D0007A8584ED91E00E944107C501B4010E9412
:1026E000D8069B01AC01B80184ED91E00E9441073E
:1026F000C501B4010E94D8069B01AC01B60184ED6E
:1027000091E00E9441072FEF621A720A8D819E812B
:10271000AF81B8850D96A11DB11D8D839E83AF83BA
:10272000B8870F5F1F4F89819A81AB81BC81469723
:10273000A109B10989839A83AB83BC8341145104F5
:1027400096E16906710409F05ECF0E941F0880912E
:10275000C1019091C201A091C301B091C4019F5FDA
:10276000AF4FBF4F009725E0A207B1050CF078C02E
:102770008093C1019093C201A093C301B093C4019F
:102780000CC087E691E00E94B60D8111FDCE8AE370
:1027900091E00E94B60D8111F7CE2E960FB6F894F7
:1027A000DEBF0FBECDBFDF91CF911F910F91FF9084
:1027B000EF90DF90CF90BF90AF909F908F907F90E1
:1027C0006F905F904F903F902F90089520919701C8
:1027D0003091980100916A0110916B01DFCE209138
:1027E00008012E9FC0012F9F900D11246FEF70E004
:1027F0000E94D81B262F309109013E9FC0013F9FA8
:10280000900D11246FEF70E00E94D81BC62ED12CC2
:10281000F12CE12CFE2CED2CDC2CCC24E22A209196
:102820000A012E9FC0012F9F900D11246FEF70E0C1
:102830000E94D81BC62AC701B6010E94D806AB0168
:10284000BC018AEE91E00E94AD07C701B6010E946B
:10285000D806AB01BC0184ED91E00E94AD0775CFB5
:102860001092C1011092C2011092C3011092C401D2
:1028700094CFFC014481558170E060E081859285B0
:102880000C941E1DCF93DF93EB010E942F1B8883B6
:10289000CE01DF91CF910895FF920F931F93CF93B5
:1028A000DF938C01EB01F8800E942F1BF81621F0BA
:1028B0006F2DC8010E94371BCE01DF91CF911F9170
:1028C0000F91FF9008950F931F9380910C0188231F
:1028D00019F110920C0110E000E030E020E040E03F
:1028E00060E080E00E946B088FEF809308011092F7
:1028F000090180E680930A011092C1011092C20181
:102900001092C3011092C4016CE071E081E090E08C
:102910001F910F910C944C1481E080930C018091D5
:10292000C5019091C60105E010E0892B71F021E00E
:1029300030E040E060E080E00E946B086AEF70E009
:1029400080E090E00E94F902DFCF22E030E0409189
:102950000A016091090180910801EECF0F931F9346
:10296000CF93DF9380910C01882309F466C0809196
:102970000B018431B1F56BE071E090E080E00E94E2
:10298000421410E000E022E030E040E060E080E04F
:102990000E946B08C1E0D0E080910B0190E00196AD
:1029A0008C179D07F4F105E010E022E030E040E0F4
:1029B00060E080E00E946B0864E670E080E090E0F8
:1029C0000E94F9028091C5019091C601892BF1F016
:1029D00021E030E040E060E080E00E946B0821965A
:1029E000DBCF2FE730E030932501209324011092B4
:1029F000C1011092C2011092C3011092C4018F5FF5
:102A000067E00E94B81B90930B01BBCF05E010E07C
:102A100022E030E040910A016091090180910801B3
:102A2000DCCF64E670E080E090E00E94F9026BE0A9
:102A300071E090E080E00E944C14DF91CF911F91F3
:102A40000F910C94340DCF92DF92EF92FF92CF93BF
:102A5000DF9387E00E94BC02EC0186E00E94BC028A
:102A6000BE01680F791F072E000C880B990B6115AA
:102A700071058105910511F00E94261B0E94D71A4D
:102A8000C12CD12C7601CA94A70196010E94451B46
:102A9000609308010E94D71AA70196010E94451B66
:102AA000609309010E94D71AA70196010E94451B55
:102AB00060930A01DF91CF91FF90EF90DF90CF906C
:102AC00008950F931F93CF9380910C01882309F1F0
:102AD000809145029091460284309105F1F0853055
:102AE000910509F465C00397A1F48091C501909107
:102AF000C601892B71F40E9423150AE010E022E040
:102B000030E040910A0160910901809108010E9422
:102B10006B08CF911F910F9108958FE790E09093EC
:102B20002501809324011092C1011092C2011092DC
:102B3000C3011092C4018091C5019091C601019614
:102B400062E070E00E94D81B9093C6018093C5019B
:102B50008130910511F082E090E00AE010E09C01E4
:102B600040910A0160910901809108010E946B085F
:102B70000E94340DC091C50182E090E00E942F1B9D
:102B8000C81729F06C2F82E090E00E94371BC0919B
:102B9000C60183E090E00E942F1BC81709F4B9CF4B
:102BA0006C2F83E090E0CF911F910F910C94371B15
:102BB00040E060E08FEF0E94340840E060E080E099
:102BC0000E94340840E06FEF80E00E94340840E04B
:102BD00060E080E00E9434084FEF60E080E00E94F7
:102BE000340840E060E080E0CF911F910F910C9499
:102BF00034081F920F920FB60F9211242F933F9318
:102C00008F939F93AF93BF938091CC019091CD010F
:102C1000A091CE01B091CF013091CB0126E0230FDE
:102C20002D3768F129E8230F0396A11DB11D2093CC
:102C3000CB018093CC019093CD01A093CE01B093B2
:102C4000CF018091D0019091D101A091D201B0919A
:102C5000D3010196A11DB11D8093D0019093D101A4
:102C6000A093D201B093D301BF91AF919F918F9167
:102C70003F912F910F900FBE0F901F9018950296C5
:102C8000A11DB11DD4CF1F920F920FB60F92112428
:102C90002F933F934F935F936F937F938F939F9364
:102CA000AF93BF93EF93FF93E0910601F09107017B
:102CB0000995FF91EF91BF91AF919F918F917F9176
:102CC0006F915F914F913F912F910F900FBE0F9099
:102CD0001F9018951F920F920FB60F9211242F93E9
:102CE0003F934F935F936F937F938F939F93AF9394
:102CF000BF93EF93FF93E0910401F09105010995D3
:102D0000FF91EF91BF91AF919F918F917F916F91C3
:102D10005F914F913F912F910F900FBE0F901F9099
:102D20001895FC01862F1282148213821682158256
:102D30001186138612861586148624EF31E0308BB7
:102D4000278728E230E0328B218B94E1938B148A21
:102D5000158A24E6268B178A108E118E128E138EFA
:102D6000148E158E168E20E63AEE30A3278F12A20F
:102D700011A214A213A216A215A220E527A390A7C0
:102D800024E630E032A721A713A614A6918399E187
:102D9000908396E990879EE19783668760E00C9424
:102DA00080020F931F93CF93DF93EC01162F072F11
:102DB000198218861F86188A198A1A8A83E08E87D4
:102DC00081E08B871C8692E09D87888384EE90E06B
:102DD0009D838C830E94F91B9A878987009771F1E4
:102DE00024EEFC0111922A95E9F789E390E09B8398
:102DF0008A831E830F838981882339F061E0812FC4
:102E00000E948002812F0E945902812F902FFC0185
:102E1000EA57FD4FE491F0E0EE0FFF1FEE58FD4F33
:102E2000259134913C8B2B8BFC01E356FD4FE491B3
:102E3000ED8BDF91CF911F910F9108951D821C8220
:102E40001B821A82D6CFCF93DF93CDB7DEB76A97B6
:102E50000FB6F894DEBF0FBECDBF789484B5836003
:102E600084BD85B5836085BD80916E00816080934F
:102E70006E0082E080938100809181008160809368
:102E80008100809180008160809380008091B100FA
:102E900084608093B1008091B00081608093B00025
:102EA00086E880937A001092C10083E295E09093C7
:102EB000050180930401809169008C7F816080937B
:102EC0006900E89A8EEA94E190930D0280930C02D7
:102ED00083E694E1909313028093120230914702AB
:102EE0002091480281E695E190931902809318029F
:102EF000832F922F8436910514F484E690E090930A
:102F000048028093470285E295E090931F028093E8
:102F10001E0280ED97E090930702809306028AE0FC
:102F200080939C0164E170E07093A6016093A50119
:102F30004FE140939B018093A70136E130939401C8
:102F40001092A90124E62093AA019AE59093BB016F
:102F500080936F01709379016093780140936E01C3
:102F600080937A013093670110927C0120937D0158
:102F700090938E018093420170934C0160934B01BA
:102F80004093410180934D0130933A0110924F01DB
:102F9000209350019093610166E28AEE91E00E94D5
:102FA000FE0666E284ED91E00E94FE068AEE91E064
:102FB0000E940D0884ED91E00E940D088AEE91E0D8
:102FC0000E94391484ED91E00E9439140E941F0878
:102FD0006BE071E090E080E00E9442146CE071E0F0
:102FE00081E090E00E94421482E090E00E942F1B5A
:102FF0008093C50183E090E00E942F1B8093C6015F
:103000000E94340D26E1422E512C612C712C30E0AF
:10301000232E30E0332E0E94380380910C01882348
:1030200009F4A6C1E0910B01E53108F013C1F0E00D
:10303000E45EF74E0C94EC1B3118601965196819A1
:103040006D19721975192A192A192A192A192A1992
:103050002A192A192A192A192A192A192A192A1958
:1030600078198091C5019091C601892B09F402C19C
:103070000E942C03C090C701D090C801E090C90104
:10308000F090CA016C197D098E099F096A3071059B
:103090008105910508F4DEC00E942C036093C701EE
:1030A0007093C8018093C9019093CA011D821E824A
:1030B0001F8218868DE090E09A8F898F19861A8674
:1030C0001B861C86812C912C54018091C10190910A
:1030D000C201A091C301B091C4018D879E87AF87C3
:1030E000B88BC501B401A30192010E94451B8D85D7
:1030F0009E85820F931F6FEF0E9492016B017C01EE
:103100000E94D80669837A838B839C8369857A853C
:103110008B859C85A30192010E94451B298B3A8BCC
:103120004B8B5C8B29813A814B815C8169897A89DF
:103130008AEE91E00E944107C701B6010E94D806BD
:103140009B01AC01698D7A8D8AEE91E00E94410766
:10315000C701B6010E94D8066D8B7E8B8F8B988F2E
:103160006D817E818F819885A30192010E94451B0C
:10317000DA01C901C896A11DB11D89839A83AB8369
:10318000BC832D893E894F89588D69817A818AEE69
:1031900091E00E944107C701B6010E94D8069B0139
:1031A000AC0169897A8984ED91E00E944107C701E9
:1031B000B6010E94D8069B01AC01698D7A8D84ED21
:1031C00091E00E944107C701B6010E94D8069B0109
:1031D000AC0169817A8184ED91E00E9441079FEF03
:1031E000A91AB90A89859A85AB85BC850D96A11D5A
:1031F000B11D89879A87AB87BC87A98DBA8D119637
:10320000BA8FA98F8D819E81AF81B8854697A1091C
:10321000B1098D839E83AF83B8878114910496E1B1
:10322000A906B10409F051CF0E941F088D859E8523
:10323000AF85B8899F5FAF4FBF4F009725E0A207CA
:10324000B1057CF48093C1019093C201A093C301A6
:10325000B093C4012114310409F4DDCE0E940000B2
:10326000DACE1092C1011092C2011092C3011092E5
:10327000C401F0CF80910801C0900901D12CF12C3C
:10328000E12CFE2CED2CDC2CCC24E82A80910A01C8
:10329000C82AC701B6010E94D806AB01BC018AEE5C
:1032A00091E00E94AD07C701B6010E94D806AB01AC
:1032B000BC0184ED91E00E94AD070E941F08CACFB7
:1032C00090E080E00E94640BC5CF81E090E0FACFEF
:1032D00081E090E00E94A112BDCF81E090E00E94C9
:1032E000B80EB8CF82E090E0F5CF82E090E0F7CF63
:1032F0000E942C03C090C701D090C801E090C90182
:10330000F090CA016C197D098E099F09683E7340CF
:103310008105910508F49ECF0E942C036093C7019C
:103320007093C8018093C9019093CA010E9423152C
:103330000E94D71A6B017C010E94D71A24E130E069
:1033400040E050E00E94451B4B01C701B60123E05D
:1033500030E040E050E00E94451B84019B01409119
:103360000A0160910901809108010E946B0872CFE7
:103370008AEE91E00E94391484ED91E00E943914A4
:103380009CCFE0E0F2E082E390E09383828380E9E7
:1033900091E09583848380E293E09783868388EE2F
:1033A00093E0918780871386128615861486178688
:1033B0001686118A108A138A128A158A148A178A25
:1033C000168A118E108E138E128E158E148E178EF5
:1033D000168E11A210A213A212A215A214A217A255
:1033E00016A211A610A613A612A615A614A617A615
:1033F00016A611AA10AA13AA12AA14AA8FEF9FEF59
:1034000096AB85AB90AF87AB11AE12AE13AE14AED8
:1034100010923D0210923E0210923F021092400222
:103420001092410210924202109243021092440202
:10343000109246021092450281E090E0909348027B
:103440008093470210924A021092490210924B0256
:1034500010924C0210924D0210924E0282E090E0C7
:103460009183808362E00E94800269E070E08AEECE
:1034700091E00E94D11668E070E084ED91E00E9436
:10348000D1166EE070E084E991E00E9491166FE041
:1034900070E087E691E00E94911660E170E08AE3B7
:1034A00091E00E9491168091C5019091C601880F0C
:1034B000991FFC01E15EFE4F20813181309339017B
:1034C00020933801855E9E4FFC018081918190930D
:1034D00037018093360108958091DD019091DE01DE
:1034E0000E94951C8091DA019091DB0197FD03C049
:1034F00060E00E9480028091F3019091F4010E94AB
:10350000951C8091F0019091F10197FD03C060E05E
:103510000C94800208958F929F92AF92BF92CF92A7
:10352000DF92EF92FF92CF93DF93EC016881798174
:103530008A819B81611571058105910521F464E201
:1035400079ED8BE597E02DE133EF41E050E00E940B
:10355000451B49015A019B01AC01A7EAB1E40E9455
:10356000641B6B017C01ACEEB4EFA50194010E94D9
:10357000721BC60ED71EE81EF91EF7FE06C081E0BC
:10358000C81AD108E10880E8F80AC882D982EA821C
:10359000FB82C701B6019F77DF91CF91FF90EF903B
:1035A000DF90CF90BF90AF909F908F9008958F92B3
:1035B0009F92AF92BF92CF92DF92EF92FF92609173
:1035C0000D0170910E0180910F0190911001611514
:1035D00071058105910521F464E279ED8BE597E0B1
:1035E0002DE133EF41E050E00E94451B49015A01B3
:1035F0009B01AC01A7EAB1E40E94641B6B017C0152
:10360000ACEEB4EFA50194010E94721BC60ED71E4A
:10361000E81EF91EF7FE06C081E0C81AD108E108CD
:1036200080E8F80AC0920D01D0920E01E0920F01DD
:10363000F0921001C701B6019F77FF90EF90DF90E5
:10364000CF90BF90AF909F908F90089560930D01A1
:1036500070930E0180930F01909310010895F999D2
:10366000FECF92BD81BDF89A992780B50895262F87
:10367000F999FECF1FBA92BD81BD20BD0FB6F89457
:10368000FA9AF99A0FBE01960895052E97FB1EF43B
:1036900000940E945C1B57FD07D00E94771B07FC1B
:1036A00003D04EF40C945C1B5095409530952195B9
:1036B0003F4F4F4F5F4F089590958095709561955E
:1036C0007F4F8F4F9F4F08950E94991BA59F900D8C
:1036D000B49F900DA49F800D911D11240895B7FFF4
:1036E0000C94641B0E94641B821B930B0895A1E23F
:1036F0001A2EAA1BBB1BFD010DC0AA1FBB1FEE1F6C
:10370000FF1FA217B307E407F50720F0A21BB30BB6
:10371000E40BF50B661F771F881F991F1A9469F732
:1037200060957095809590959B01AC01BD01CF018E
:103730000895A29FB001B39FC001A39F700D811D8A
:103740001124911DB29F700D811D1124911D0895AA
:10375000DB018F939F930E94641BBF91AF91A29F47
:10376000800D911DA39F900DB29F900D112408957F
:10377000991B79E004C0991F961708F0961B881FC3
:103780007A95C9F780950895AA1BBB1B51E107C024
:10379000AA1FBB1FA617B70710F0A61BB70B881FE1
:1037A000991F5A95A9F780959095BC01CD01089570
:1037B00097FB072E16F4009407D077FD09D00E94DE
:1037C000C41B07FC05D03EF4909581959F4F08954A
:1037D000709561957F4F0895EE0FFF1F0590F4914E
:1037E000E02D09940E94991BB7FF0895821B930B4B
:1037F00008950F931F93CF93DF938230910510F4B8
:1038000082E090E0E0915102F091520230E020E03D
:10381000B0E0A0E0309799F42115310509F44AC0D1
:10382000281B390B24303105D8F58A819B8161151D
:10383000710589F1FB0193838283FE0111C04081F0
:1038400051810281138148175907E0F04817590741
:1038500099F4109761F012960C93129713961C939B
:103860003296CF01DF91CF911F910F910895009370
:10387000510210935202F4CF2115310551F0421735
:10388000530738F0A901DB019A01BD01DF01F801FE
:10389000C1CFEF01F9CF9093520280935102CDCF67
:1038A000FE01E20FF31F8193919322503109398376
:1038B0002883D7CF20914F0230915002232B41F41F
:1038C00020911301309114013093500220934F0244
:1038D00020911101309112012115310541F42DB7CC
:1038E0003EB74091150150911601241B350BE09114
:1038F0004F02F0915002E217F307A0F42E1B3F0B8A
:103900002817390778F0AC014E5F5F4F2417350751
:1039100048F04E0F5F1F5093500240934F02819327
:1039200091939FCFF0E0E0E09CCFCF93DF9300979F
:10393000E9F0FC01329713821282A0915102B091FA
:103940005202ED0130E020E01097A1F42081318196
:10395000820F931F20914F02309150022817390790
:1039600009F061C0F0935002E0934F02DF91CF91D4
:103970000895EA01CE17DF07E8F54A815B819E01D1
:1039800041155105B1F7E901FB83EA83499159914A
:10399000C40FD51FEC17FD0761F480819181029659
:1039A000840F951FE90199838883828193819B838A
:1039B0008A83F0E0E0E012968D919C911397009736
:1039C000B9F52D913C911197CD010296820F931F6D
:1039D00020914F02309150022817390739F630975D
:1039E00051F51092520210925102B0935002A093DE
:1039F0004F02BCCFD383C28340815181840F951F76
:103A0000C817D90761F44E5F5F4F88819981480FCD
:103A1000591F518340838A819B819383828321151F
:103A2000310509F0B0CFF0935202E09351029ECFDE
:103A3000FD01DC01C0CF13821282D7CFDC0101C0AF
:103A40006D9341505040E0F7089511E0C7E6D1E092
:103A500004C0FE010E94EC1B2196C836D107C9F7AD
:043A6000F894FFCF08
:103A64001010101029050000FF006004010100007F
:103A74000000005302800019001000050002002419
:043A8400000C000032
:00000001FF
